{
  "contractName": "Healthcare",
  "abi": [
    {
      "inputs": [],
      "payable": false,
      "stateMutability": "nonpayable",
      "type": "constructor"
    },
    {
      "anonymous": false,
      "inputs": [
        {
          "indexed": false,
          "internalType": "address",
          "name": "_docAddr",
          "type": "address"
        },
        {
          "indexed": false,
          "internalType": "address",
          "name": "_patAddr",
          "type": "address"
        },
        {
          "indexed": false,
          "internalType": "uint256",
          "name": "_value",
          "type": "uint256"
        }
      ],
      "name": "PrescriptionEvent",
      "type": "event"
    },
    {
      "anonymous": false,
      "inputs": [
        {
          "indexed": false,
          "internalType": "string",
          "name": "_status",
          "type": "string"
        },
        {
          "indexed": false,
          "internalType": "string",
          "name": "_msg",
          "type": "string"
        }
      ],
      "name": "ReturnValue",
      "type": "event"
    },
    {
      "constant": true,
      "inputs": [
        {
          "internalType": "address",
          "name": "",
          "type": "address"
        }
      ],
      "name": "DoctorList",
      "outputs": [
        {
          "internalType": "string",
          "name": "RegNo",
          "type": "string"
        },
        {
          "internalType": "string",
          "name": "medCouncilName",
          "type": "string"
        },
        {
          "internalType": "string",
          "name": "name",
          "type": "string"
        },
        {
          "internalType": "string",
          "name": "areaExpertize",
          "type": "string"
        },
        {
          "internalType": "uint256",
          "name": "contactNo",
          "type": "uint256"
        },
        {
          "internalType": "bool",
          "name": "exist",
          "type": "bool"
        }
      ],
      "payable": false,
      "stateMutability": "view",
      "type": "function"
    },
    {
      "constant": true,
      "inputs": [
        {
          "internalType": "address",
          "name": "",
          "type": "address"
        }
      ],
      "name": "PatientList",
      "outputs": [
        {
          "internalType": "uint256",
          "name": "aadhaar",
          "type": "uint256"
        },
        {
          "internalType": "bytes32",
          "name": "otp",
          "type": "bytes32"
        },
        {
          "internalType": "bool",
          "name": "exist",
          "type": "bool"
        }
      ],
      "payable": false,
      "stateMutability": "view",
      "type": "function"
    },
    {
      "constant": true,
      "inputs": [
        {
          "internalType": "address",
          "name": "",
          "type": "address"
        }
      ],
      "name": "PharmacyList",
      "outputs": [
        {
          "internalType": "string",
          "name": "RegNo",
          "type": "string"
        },
        {
          "internalType": "string",
          "name": "name",
          "type": "string"
        },
        {
          "internalType": "uint256",
          "name": "contactNo",
          "type": "uint256"
        },
        {
          "internalType": "bool",
          "name": "exist",
          "type": "bool"
        }
      ],
      "payable": false,
      "stateMutability": "view",
      "type": "function"
    },
    {
      "constant": true,
      "inputs": [
        {
          "internalType": "uint256",
          "name": "",
          "type": "uint256"
        }
      ],
      "name": "PrescriptionList",
      "outputs": [
        {
          "internalType": "string",
          "name": "prescription",
          "type": "string"
        },
        {
          "internalType": "bytes32",
          "name": "key",
          "type": "bytes32"
        },
        {
          "internalType": "bytes32",
          "name": "otp",
          "type": "bytes32"
        },
        {
          "internalType": "bool",
          "name": "exist",
          "type": "bool"
        }
      ],
      "payable": false,
      "stateMutability": "view",
      "type": "function"
    },
    {
      "constant": true,
      "inputs": [],
      "name": "admin",
      "outputs": [
        {
          "internalType": "address",
          "name": "",
          "type": "address"
        }
      ],
      "payable": false,
      "stateMutability": "view",
      "type": "function"
    },
    {
      "constant": true,
      "inputs": [],
      "name": "isAdmin",
      "outputs": [
        {
          "internalType": "string",
          "name": "_status",
          "type": "string"
        },
        {
          "internalType": "string",
          "name": "_msg",
          "type": "string"
        }
      ],
      "payable": false,
      "stateMutability": "view",
      "type": "function"
    },
    {
      "constant": true,
      "inputs": [],
      "name": "isDoctor",
      "outputs": [
        {
          "internalType": "string",
          "name": "_status",
          "type": "string"
        },
        {
          "internalType": "string",
          "name": "_msg",
          "type": "string"
        }
      ],
      "payable": false,
      "stateMutability": "view",
      "type": "function"
    },
    {
      "constant": true,
      "inputs": [],
      "name": "isPatient",
      "outputs": [
        {
          "internalType": "string",
          "name": "_status",
          "type": "string"
        },
        {
          "internalType": "string",
          "name": "_msg",
          "type": "string"
        }
      ],
      "payable": false,
      "stateMutability": "view",
      "type": "function"
    },
    {
      "constant": true,
      "inputs": [],
      "name": "isPharmacy",
      "outputs": [
        {
          "internalType": "string",
          "name": "_status",
          "type": "string"
        },
        {
          "internalType": "string",
          "name": "_msg",
          "type": "string"
        }
      ],
      "payable": false,
      "stateMutability": "view",
      "type": "function"
    },
    {
      "constant": false,
      "inputs": [
        {
          "internalType": "address",
          "name": "patientAddr",
          "type": "address"
        },
        {
          "internalType": "uint256",
          "name": "_aadhaar",
          "type": "uint256"
        }
      ],
      "name": "addPatient",
      "outputs": [],
      "payable": false,
      "stateMutability": "nonpayable",
      "type": "function"
    },
    {
      "constant": false,
      "inputs": [
        {
          "internalType": "string",
          "name": "_otp",
          "type": "string"
        }
      ],
      "name": "resetOTP",
      "outputs": [],
      "payable": false,
      "stateMutability": "nonpayable",
      "type": "function"
    },
    {
      "constant": false,
      "inputs": [
        {
          "internalType": "address",
          "name": "_docAddr",
          "type": "address"
        },
        {
          "internalType": "string",
          "name": "_RegNo",
          "type": "string"
        },
        {
          "internalType": "string",
          "name": "_medCouncilName",
          "type": "string"
        },
        {
          "internalType": "string",
          "name": "_name",
          "type": "string"
        },
        {
          "internalType": "string",
          "name": "_areaExpertize",
          "type": "string"
        },
        {
          "internalType": "uint256",
          "name": "_contactNo",
          "type": "uint256"
        }
      ],
      "name": "addDoctor",
      "outputs": [],
      "payable": false,
      "stateMutability": "nonpayable",
      "type": "function"
    },
    {
      "constant": true,
      "inputs": [
        {
          "internalType": "address",
          "name": "docAddr",
          "type": "address"
        }
      ],
      "name": "getDocDetails",
      "outputs": [
        {
          "internalType": "string",
          "name": "_RegNo",
          "type": "string"
        },
        {
          "internalType": "string",
          "name": "_name",
          "type": "string"
        },
        {
          "internalType": "string",
          "name": "_status",
          "type": "string"
        },
        {
          "internalType": "string",
          "name": "_msg",
          "type": "string"
        }
      ],
      "payable": false,
      "stateMutability": "view",
      "type": "function"
    },
    {
      "constant": false,
      "inputs": [
        {
          "internalType": "address",
          "name": "_pharmAddr",
          "type": "address"
        },
        {
          "internalType": "string",
          "name": "_RegNo",
          "type": "string"
        },
        {
          "internalType": "string",
          "name": "_name",
          "type": "string"
        },
        {
          "internalType": "uint256",
          "name": "_contactNo",
          "type": "uint256"
        }
      ],
      "name": "addPharmacy",
      "outputs": [],
      "payable": false,
      "stateMutability": "nonpayable",
      "type": "function"
    },
    {
      "constant": true,
      "inputs": [
        {
          "internalType": "address",
          "name": "_patientAddr",
          "type": "address"
        }
      ],
      "name": "createPrescriptionID",
      "outputs": [
        {
          "internalType": "uint256",
          "name": "",
          "type": "uint256"
        }
      ],
      "payable": false,
      "stateMutability": "view",
      "type": "function"
    },
    {
      "constant": false,
      "inputs": [
        {
          "internalType": "address",
          "name": "_patientAddr",
          "type": "address"
        },
        {
          "internalType": "string",
          "name": "_patOtp",
          "type": "string"
        },
        {
          "internalType": "string",
          "name": "_prescription",
          "type": "string"
        }
      ],
      "name": "addPrescription",
      "outputs": [],
      "payable": false,
      "stateMutability": "nonpayable",
      "type": "function"
    },
    {
      "constant": false,
      "inputs": [
        {
          "internalType": "uint256",
          "name": "_prescriptionID",
          "type": "uint256"
        },
        {
          "internalType": "string",
          "name": "_prescriptionOtp",
          "type": "string"
        },
        {
          "internalType": "address",
          "name": "_patientAddr",
          "type": "address"
        },
        {
          "internalType": "string",
          "name": "_prescription",
          "type": "string"
        }
      ],
      "name": "editPrescription",
      "outputs": [],
      "payable": false,
      "stateMutability": "nonpayable",
      "type": "function"
    },
    {
      "constant": false,
      "inputs": [
        {
          "internalType": "address",
          "name": "_docAddr",
          "type": "address"
        },
        {
          "internalType": "uint256",
          "name": "_prescriptionID",
          "type": "uint256"
        },
        {
          "internalType": "string",
          "name": "_otp",
          "type": "string"
        }
      ],
      "name": "resetPrescriptionOTP",
      "outputs": [],
      "payable": false,
      "stateMutability": "nonpayable",
      "type": "function"
    },
    {
      "constant": false,
      "inputs": [
        {
          "internalType": "address",
          "name": "_docAddr",
          "type": "address"
        },
        {
          "internalType": "uint256",
          "name": "_prescriptionID",
          "type": "uint256"
        },
        {
          "internalType": "address",
          "name": "_authrizedPerson",
          "type": "address"
        }
      ],
      "name": "addAuthPerson",
      "outputs": [],
      "payable": false,
      "stateMutability": "nonpayable",
      "type": "function"
    },
    {
      "constant": true,
      "inputs": [
        {
          "internalType": "address",
          "name": "_patientAddr",
          "type": "address"
        },
        {
          "internalType": "uint256",
          "name": "_prescriptionID",
          "type": "uint256"
        },
        {
          "internalType": "string",
          "name": "_otp",
          "type": "string"
        }
      ],
      "name": "getPrescription",
      "outputs": [
        {
          "internalType": "string",
          "name": "_prescription",
          "type": "string"
        },
        {
          "internalType": "string",
          "name": "_status",
          "type": "string"
        },
        {
          "internalType": "string",
          "name": "_msg",
          "type": "string"
        }
      ],
      "payable": false,
      "stateMutability": "view",
      "type": "function"
    }
  ],
  "bytecode": "0x608060405234801561001057600080fd5b5033600260006101000a81548173ffffffffffffffffffffffffffffffffffffffff021916908373ffffffffffffffffffffffffffffffffffffffff160217905550614b07806100616000396000f3fe608060405234801561001057600080fd5b506004361061012c5760003560e01c8063b0d3c280116100ad578063bb99daa711610071578063bb99daa714611244578063bcb3b61c146112ae578063bfbe4f2214611306578063f5b2317214611354578063f851a440146114d05761012c565b8063b0d3c28014610c87578063b28780ea14610dc2578063b6db75a014610fc3578063b73f45df146110b2578063b986b608146111555761012c565b80633bc0b053116100f45780633bc0b053146108ca57806356c409c8146109435780635962b43014610a325780635f5e19eb14610b215780637f5b186414610c195761012c565b8063037718ea146101315780630405354d146103675780630e4e8f3b1461057a5780631d80450a1461063a57806320baae9914610728575b600080fd5b6102146004803603606081101561014757600080fd5b81019080803573ffffffffffffffffffffffffffffffffffffffff169060200190929190803590602001909291908035906020019064010000000081111561018e57600080fd5b8201836020820111156101a057600080fd5b803590602001918460018302840111640100000000831117156101c257600080fd5b91908080601f016020809104026020016040519081016040528093929190818152602001838380828437600081840152601f19601f82011690508083019250505050505050919291929050505061151a565b60405180806020018060200180602001848103845287818151815260200191508051906020019080838360005b8381101561025c578082015181840152602081019050610241565b50505050905090810190601f1680156102895780820380516001836020036101000a031916815260200191505b50848103835286818151815260200191508051906020019080838360005b838110156102c25780820151818401526020810190506102a7565b50505050905090810190601f1680156102ef5780820380516001836020036101000a031916815260200191505b50848103825285818151815260200191508051906020019080838360005b8381101561032857808201518184015260208101905061030d565b50505050905090810190601f1680156103555780820380516001836020036101000a031916815260200191505b50965050505050505060405180910390f35b6103a96004803603602081101561037d57600080fd5b81019080803573ffffffffffffffffffffffffffffffffffffffff169060200190929190505050611aa1565b60405180806020018060200180602001806020018781526020018615151515815260200185810385528b818151815260200191508051906020019080838360005b838110156104055780820151818401526020810190506103ea565b50505050905090810190601f1680156104325780820380516001836020036101000a031916815260200191505b5085810384528a818151815260200191508051906020019080838360005b8381101561046b578082015181840152602081019050610450565b50505050905090810190601f1680156104985780820380516001836020036101000a031916815260200191505b50858103835289818151815260200191508051906020019080838360005b838110156104d15780820151818401526020810190506104b6565b50505050905090810190601f1680156104fe5780820380516001836020036101000a031916815260200191505b50858103825288818151815260200191508051906020019080838360005b8381101561053757808201518184015260208101905061051c565b50505050905090810190601f1680156105645780820380516001836020036101000a031916815260200191505b509a505050505050505050505060405180910390f35b6105a66004803603602081101561059057600080fd5b8101908080359060200190929190505050611d4a565b604051808060200185815260200184815260200183151515158152602001828103825286818151815260200191508051906020019080838360005b838110156105fc5780820151818401526020810190506105e1565b50505050905090810190601f1680156106295780820380516001836020036101000a031916815260200191505b509550505050505060405180910390f35b6107266004803603606081101561065057600080fd5b81019080803573ffffffffffffffffffffffffffffffffffffffff1690602001909291908035906020019064010000000081111561068d57600080fd5b82018360208201111561069f57600080fd5b803590602001918460018302840111640100000000831117156106c157600080fd5b9091929391929390803590602001906401000000008111156106e257600080fd5b8201836020820111156106f457600080fd5b8035906020019184600183028401116401000000008311171561071657600080fd5b9091929391929390505050611e1f565b005b6108c8600480360360c081101561073e57600080fd5b81019080803573ffffffffffffffffffffffffffffffffffffffff1690602001909291908035906020019064010000000081111561077b57600080fd5b82018360208201111561078d57600080fd5b803590602001918460018302840111640100000000831117156107af57600080fd5b9091929391929390803590602001906401000000008111156107d057600080fd5b8201836020820111156107e257600080fd5b8035906020019184600183028401116401000000008311171561080457600080fd5b90919293919293908035906020019064010000000081111561082557600080fd5b82018360208201111561083757600080fd5b8035906020019184600183028401116401000000008311171561085957600080fd5b90919293919293908035906020019064010000000081111561087a57600080fd5b82018360208201111561088c57600080fd5b803590602001918460018302840111640100000000831117156108ae57600080fd5b909192939192939080359060200190929190505050612428565b005b610941600480360360208110156108e057600080fd5b81019080803590602001906401000000008111156108fd57600080fd5b82018360208201111561090f57600080fd5b8035906020019184600183028401116401000000008311171561093157600080fd5b90919293919293905050506128b9565b005b61094b612b0d565b604051808060200180602001838103835285818151815260200191508051906020019080838360005b8381101561098f578082015181840152602081019050610974565b50505050905090810190601f1680156109bc5780820380516001836020036101000a031916815260200191505b50838103825284818151815260200191508051906020019080838360005b838110156109f55780820151818401526020810190506109da565b50505050905090810190601f168015610a225780820380516001836020036101000a031916815260200191505b5094505050505060405180910390f35b610a3a612c5c565b604051808060200180602001838103835285818151815260200191508051906020019080838360005b83811015610a7e578082015181840152602081019050610a63565b50505050905090810190601f168015610aab5780820380516001836020036101000a031916815260200191505b50838103825284818151815260200191508051906020019080838360005b83811015610ae4578082015181840152602081019050610ac9565b50505050905090810190601f168015610b115780820380516001836020036101000a031916815260200191505b5094505050505060405180910390f35b610c1760048036036080811015610b3757600080fd5b81019080803573ffffffffffffffffffffffffffffffffffffffff16906020019092919080359060200190640100000000811115610b7457600080fd5b820183602082011115610b8657600080fd5b80359060200191846001830284011164010000000083111715610ba857600080fd5b909192939192939080359060200190640100000000811115610bc957600080fd5b820183602082011115610bdb57600080fd5b80359060200191846001830284011164010000000083111715610bfd57600080fd5b909192939192939080359060200190929190505050612dab565b005b610c8560048036036060811015610c2f57600080fd5b81019080803573ffffffffffffffffffffffffffffffffffffffff16906020019092919080359060200190929190803573ffffffffffffffffffffffffffffffffffffffff1690602001909291905050506131a4565b005b610cc960048036036020811015610c9d57600080fd5b81019080803573ffffffffffffffffffffffffffffffffffffffff1690602001909291905050506134f6565b60405180806020018060200185815260200184151515158152602001838103835287818151815260200191508051906020019080838360005b83811015610d1d578082015181840152602081019050610d02565b50505050905090810190601f168015610d4a5780820380516001836020036101000a031916815260200191505b50838103825286818151815260200191508051906020019080838360005b83811015610d83578082015181840152602081019050610d68565b50505050905090810190601f168015610db05780820380516001836020036101000a031916815260200191505b50965050505050505060405180910390f35b610e0460048036036020811015610dd857600080fd5b81019080803573ffffffffffffffffffffffffffffffffffffffff169060200190929190505050613663565b6040518080602001806020018060200180602001858103855289818151815260200191508051906020019080838360005b83811015610e50578082015181840152602081019050610e35565b50505050905090810190601f168015610e7d5780820380516001836020036101000a031916815260200191505b50858103845288818151815260200191508051906020019080838360005b83811015610eb6578082015181840152602081019050610e9b565b50505050905090810190601f168015610ee35780820380516001836020036101000a031916815260200191505b50858103835287818151815260200191508051906020019080838360005b83811015610f1c578082015181840152602081019050610f01565b50505050905090810190601f168015610f495780820380516001836020036101000a031916815260200191505b50858103825286818151815260200191508051906020019080838360005b83811015610f82578082015181840152602081019050610f67565b50505050905090810190601f168015610faf5780820380516001836020036101000a031916815260200191505b509850505050505050505060405180910390f35b610fcb61399f565b604051808060200180602001838103835285818151815260200191508051906020019080838360005b8381101561100f578082015181840152602081019050610ff4565b50505050905090810190601f16801561103c5780820380516001836020036101000a031916815260200191505b50838103825284818151815260200191508051906020019080838360005b8381101561107557808201518184015260208101905061105a565b50505050905090810190601f1680156110a25780820380516001836020036101000a031916815260200191505b5094505050505060405180910390f35b611153600480360360608110156110c857600080fd5b81019080803573ffffffffffffffffffffffffffffffffffffffff169060200190929190803590602001909291908035906020019064010000000081111561110f57600080fd5b82018360208201111561112157600080fd5b8035906020019184600183028401116401000000008311171561114357600080fd5b9091929391929390505050613ae8565b005b61115d613e42565b604051808060200180602001838103835285818151815260200191508051906020019080838360005b838110156111a1578082015181840152602081019050611186565b50505050905090810190601f1680156111ce5780820380516001836020036101000a031916815260200191505b50838103825284818151815260200191508051906020019080838360005b838110156112075780820151818401526020810190506111ec565b50505050905090810190601f1680156112345780820380516001836020036101000a031916815260200191505b5094505050505060405180910390f35b6112866004803603602081101561125a57600080fd5b81019080803573ffffffffffffffffffffffffffffffffffffffff169060200190929190505050613f91565b6040518084815260200183815260200182151515158152602001935050505060405180910390f35b6112f0600480360360208110156112c457600080fd5b81019080803573ffffffffffffffffffffffffffffffffffffffff169060200190929190505050613fc8565b6040518082815260200191505060405180910390f35b6113526004803603604081101561131c57600080fd5b81019080803573ffffffffffffffffffffffffffffffffffffffff16906020019092919080359060200190929190505050614066565b005b6114ce6004803603608081101561136a57600080fd5b81019080803590602001909291908035906020019064010000000081111561139157600080fd5b8201836020820111156113a357600080fd5b803590602001918460018302840111640100000000831117156113c557600080fd5b91908080601f016020809104026020016040519081016040528093929190818152602001838380828437600081840152601f19601f820116905080830192505050505050509192919290803573ffffffffffffffffffffffffffffffffffffffff1690602001909291908035906020019064010000000081111561144857600080fd5b82018360208201111561145a57600080fd5b8035906020019184600183028401116401000000008311171561147c57600080fd5b91908080601f016020809104026020016040519081016040528093929190818152602001838380828437600081840152601f19601f8201169050808301925050505050505091929192905050506143aa565b005b6114d8614845565b604051808273ffffffffffffffffffffffffffffffffffffffff1673ffffffffffffffffffffffffffffffffffffffff16815260200191505060405180910390f35b606080606060405180602001604052806000815250925060011515600360003373ffffffffffffffffffffffffffffffffffffffff1673ffffffffffffffffffffffffffffffffffffffff16815260200190815260200160002060050160009054906101000a900460ff1615151415806115e8575060011515600460003373ffffffffffffffffffffffffffffffffffffffff1673ffffffffffffffffffffffffffffffffffffffff16815260200190815260200160002060030160009054906101000a900460ff16151514155b80611647575060011515600160003373ffffffffffffffffffffffffffffffffffffffff1673ffffffffffffffffffffffffffffffffffffffff16815260200190815260200160002060030160009054906101000a900460ff16151514155b156116ca576040518060400160405280600481526020017f6661696c0000000000000000000000000000000000000000000000000000000081525091506040518060400160405280601781526020017f596f7520617265206e6f7420617574686f72697a6564210000000000000000008152509050828282925092509250611a98565b6001151560008087815260200190815260200160002060040160009054906101000a900460ff16151514611776576040518060400160405280600481526020017f6661696c0000000000000000000000000000000000000000000000000000000081525091506040518060400160405280601681526020017f57726f6e6720507265736372697074696f6e20494421000000000000000000008152509050828282925092509250611a98565b600080905060008090505b60008088815260200190815260200160002060030180549050811015611835573373ffffffffffffffffffffffffffffffffffffffff1660008089815260200190815260200160002060030182815481106117d857fe5b9060005260206000200160009054906101000a900473ffffffffffffffffffffffffffffffffffffffff1673ffffffffffffffffffffffffffffffffffffffff1614156118285760019150611835565b8080600101915050611781565b5060011515811515148015611906575084876040516020018083805190602001908083835b6020831061187d578051825260208201915060208101905060208303925061185a565b6001836020036101000a0380198251168184511680821785525050505050509050018273ffffffffffffffffffffffffffffffffffffffff1673ffffffffffffffffffffffffffffffffffffffff1660601b8152601401925050506040516020818303038152906040528051906020012060008088815260200190815260200160002060020154145b15611a3a576000808781526020019081526020016000206000018054600181600116156101000203166002900480601f0160208091040260200160405190810160405280929190818152602001828054600181600116156101000203166002900480156119b45780601f10611989576101008083540402835291602001916119b4565b820191906000526020600020905b81548152906001019060200180831161199757829003601f168201915b505050505093506040518060400160405280600781526020017f737563636573730000000000000000000000000000000000000000000000000081525092506040518060400160405280600781526020017f7375636365737300000000000000000000000000000000000000000000000000815250915083838393509350935050611a98565b6040518060400160405280600481526020017f6661696c000000000000000000000000000000000000000000000000000000008152509250604051806060016040528060308152602001614a79603091399150838383935093509350505b93509350939050565b6003602052806000526040600020600091509050806000018054600181600116156101000203166002900480601f016020809104026020016040519081016040528092919081815260200182805460018160011615610100020316600290048015611b4d5780601f10611b2257610100808354040283529160200191611b4d565b820191906000526020600020905b815481529060010190602001808311611b3057829003601f168201915b505050505090806001018054600181600116156101000203166002900480601f016020809104026020016040519081016040528092919081815260200182805460018160011615610100020316600290048015611beb5780601f10611bc057610100808354040283529160200191611beb565b820191906000526020600020905b815481529060010190602001808311611bce57829003601f168201915b505050505090806002018054600181600116156101000203166002900480601f016020809104026020016040519081016040528092919081815260200182805460018160011615610100020316600290048015611c895780601f10611c5e57610100808354040283529160200191611c89565b820191906000526020600020905b815481529060010190602001808311611c6c57829003601f168201915b505050505090806003018054600181600116156101000203166002900480601f016020809104026020016040519081016040528092919081815260200182805460018160011615610100020316600290048015611d275780601f10611cfc57610100808354040283529160200191611d27565b820191906000526020600020905b815481529060010190602001808311611d0a57829003601f168201915b5050505050908060040154908060050160009054906101000a900460ff16905086565b6000602052806000526040600020600091509050806000018054600181600116156101000203166002900480601f016020809104026020016040519081016040528092919081815260200182805460018160011615610100020316600290048015611df65780601f10611dcb57610100808354040283529160200191611df6565b820191906000526020600020905b815481529060010190602001808311611dd957829003601f168201915b5050505050908060010154908060020154908060040160009054906101000a900460ff16905084565b60011515600360003373ffffffffffffffffffffffffffffffffffffffff1673ffffffffffffffffffffffffffffffffffffffff16815260200190815260200160002060050160009054906101000a900460ff16151514611f20577f5092718938618a5971055ba9320e5c21b8714c9b6a566508e34ba6e24a4f9d54604051808060200180602001838103835260048152602001807f6661696c00000000000000000000000000000000000000000000000000000000815250602001838103825260158152602001807f596f7520617265206e6f74206120646f63746f722100000000000000000000008152506020019250505060405180910390a1612421565b83838660405160200180848480828437808301925050508273ffffffffffffffffffffffffffffffffffffffff1673ffffffffffffffffffffffffffffffffffffffff1660601b8152601401935050505060405160208183030381529060405280519060200120600160008773ffffffffffffffffffffffffffffffffffffffff1673ffffffffffffffffffffffffffffffffffffffff1681526020019081526020016000206002015414612075577f5092718938618a5971055ba9320e5c21b8714c9b6a566508e34ba6e24a4f9d54604051808060200180602001838103835260048152602001807f6661696c000000000000000000000000000000000000000000000000000000008152506020018381038252600b8152602001807f496e76616c6964204f54500000000000000000000000000000000000000000008152506020019250505060405180910390a1612421565b600061208086613fc8565b905060008633604051602001808373ffffffffffffffffffffffffffffffffffffffff1673ffffffffffffffffffffffffffffffffffffffff1660601b81526014018273ffffffffffffffffffffffffffffffffffffffff1673ffffffffffffffffffffffffffffffffffffffff1660601b8152601401925050506040516020818303038152906040528051906020012090508383600080858152602001908152602001600020600001919061213792919061486b565b5080600080848152602001908152602001600020600101819055506000808381526020019081526020016000206003013390806001815401808255809150509060018203906000526020600020016000909192909190916101000a81548173ffffffffffffffffffffffffffffffffffffffff021916908373ffffffffffffffffffffffffffffffffffffffff160217905550506000808381526020019081526020016000206003018790806001815401808255809150509060018203906000526020600020016000909192909190916101000a81548173ffffffffffffffffffffffffffffffffffffffff021916908373ffffffffffffffffffffffffffffffffffffffff16021790555050600160008084815260200190815260200160002060040160006101000a81548160ff021916908315150217905550600160008873ffffffffffffffffffffffffffffffffffffffff1673ffffffffffffffffffffffffffffffffffffffff1681526020019081526020016000206001018290806001815401808255809150509060018203906000526020600020016000909192909190915055507f54eec163aef6ee87ac011c4f99da6cace41e1349f25a9ed65dc54087a835f208338884604051808473ffffffffffffffffffffffffffffffffffffffff1673ffffffffffffffffffffffffffffffffffffffff1681526020018373ffffffffffffffffffffffffffffffffffffffff1673ffffffffffffffffffffffffffffffffffffffff168152602001828152602001935050505060405180910390a17f5092718938618a5971055ba9320e5c21b8714c9b6a566508e34ba6e24a4f9d54604051808060200180602001838103835260078152602001807f7375636365737300000000000000000000000000000000000000000000000000815250602001838103825260208152602001807f507265736372697074696f6e205375636365737366756c6c79206164646564218152506020019250505060405180910390a150505b5050505050565b600260009054906101000a900473ffffffffffffffffffffffffffffffffffffffff1673ffffffffffffffffffffffffffffffffffffffff163373ffffffffffffffffffffffffffffffffffffffff1614612506577f5092718938618a5971055ba9320e5c21b8714c9b6a566508e34ba6e24a4f9d54604051808060200180602001838103835260048152602001807f6661696c0000000000000000000000000000000000000000000000000000000081525060200183810382526021815260200180614a58602191396040019250505060405180910390a16128ad565b60011515600360008c73ffffffffffffffffffffffffffffffffffffffff1673ffffffffffffffffffffffffffffffffffffffff16815260200190815260200160002060050160009054906101000a900460ff1615151415612608577f5092718938618a5971055ba9320e5c21b8714c9b6a566508e34ba6e24a4f9d54604051808060200180602001838103835260048152602001807f6661696c00000000000000000000000000000000000000000000000000000000815250602001838103825260158152602001807f446f63746f7220616c72656164792065786973747300000000000000000000008152506020019250505060405180910390a16128ad565b6040518060c001604052808a8a8080601f016020809104026020016040519081016040528093929190818152602001838380828437600081840152601f19601f82011690508083019250505050505050815260200188888080601f016020809104026020016040519081016040528093929190818152602001838380828437600081840152601f19601f82011690508083019250505050505050815260200186868080601f016020809104026020016040519081016040528093929190818152602001838380828437600081840152601f19601f82011690508083019250505050505050815260200184848080601f016020809104026020016040519081016040528093929190818152602001838380828437600081840152601f19601f82011690508083019250505050505050815260200182815260200160011515815250600360008c73ffffffffffffffffffffffffffffffffffffffff1673ffffffffffffffffffffffffffffffffffffffff16815260200190815260200160002060008201518160000190805190602001906127a39291906148eb565b5060208201518160010190805190602001906127c09291906148eb565b5060408201518160020190805190602001906127dd9291906148eb565b5060608201518160030190805190602001906127fa9291906148eb565b506080820151816004015560a08201518160050160006101000a81548160ff0219169083151502179055509050507f5092718938618a5971055ba9320e5c21b8714c9b6a566508e34ba6e24a4f9d54604051808060200180602001838103835260078152602001807f737563636573730000000000000000000000000000000000000000000000000081525060200183810382526023815260200180614a11602391396040019250505060405180910390a15b50505050505050505050565b60011515600160003373ffffffffffffffffffffffffffffffffffffffff1673ffffffffffffffffffffffffffffffffffffffff16815260200190815260200160002060030160009054906101000a900460ff161515146129ba577f5092718938618a5971055ba9320e5c21b8714c9b6a566508e34ba6e24a4f9d54604051808060200180602001838103835260048152602001807f6661696c00000000000000000000000000000000000000000000000000000000815250602001838103825260148152602001807f70617469656e74206e6f742020657869737473210000000000000000000000008152506020019250505060405180910390a1612b09565b81813360405160200180848480828437808301925050508273ffffffffffffffffffffffffffffffffffffffff1673ffffffffffffffffffffffffffffffffffffffff1660601b8152601401935050505060405160208183030381529060405280519060200120600160003373ffffffffffffffffffffffffffffffffffffffff1673ffffffffffffffffffffffffffffffffffffffff168152602001908152602001600020600201819055507f5092718938618a5971055ba9320e5c21b8714c9b6a566508e34ba6e24a4f9d54604051808060200180602001838103835260078152602001807f7375636365737300000000000000000000000000000000000000000000000000815250602001838103825260208152602001807f4f545020686173206265656e207265736574207375636365737366756c6c79218152506020019250505060405180910390a15b5050565b60608060011515600460003373ffffffffffffffffffffffffffffffffffffffff1673ffffffffffffffffffffffffffffffffffffffff16815260200190815260200160002060030160009054906101000a900460ff1615151415612be7576040518060400160405280600781526020017f737563636573730000000000000000000000000000000000000000000000000081525091506040518060400160405280601181526020017f4974206973206120506861726d616379210000000000000000000000000000008152509050818191509150612c58565b6040518060400160405280600481526020017f6661696c0000000000000000000000000000000000000000000000000000000081525091506040518060400160405280601581526020017f4974206973206e6f74206120506861726d61637921000000000000000000000081525090505b9091565b60608060011515600160003373ffffffffffffffffffffffffffffffffffffffff1673ffffffffffffffffffffffffffffffffffffffff16815260200190815260200160002060030160009054906101000a900460ff1615151415612d36576040518060400160405280600781526020017f737563636573730000000000000000000000000000000000000000000000000081525091506040518060400160405280601281526020017f596f752061726520612070617469656e742100000000000000000000000000008152509050818191509150612da7565b6040518060400160405280600481526020017f6661696c0000000000000000000000000000000000000000000000000000000081525091506040518060400160405280601681526020017f596f7520617265206e6f7420612070617469656e74210000000000000000000081525090505b9091565b600260009054906101000a900473ffffffffffffffffffffffffffffffffffffffff1673ffffffffffffffffffffffffffffffffffffffff163373ffffffffffffffffffffffffffffffffffffffff1614612ea6577f5092718938618a5971055ba9320e5c21b8714c9b6a566508e34ba6e24a4f9d54604051808060200180602001838103835260048152602001807f6661696c00000000000000000000000000000000000000000000000000000000815250602001838103825260128152602001807f4f6e6c792061646d696e2063616e2061646400000000000000000000000000008152506020019250505060405180910390a161319c565b60011515600460008873ffffffffffffffffffffffffffffffffffffffff1673ffffffffffffffffffffffffffffffffffffffff16815260200190815260200160002060030160009054906101000a900460ff1615151415612fa8577f5092718938618a5971055ba9320e5c21b8714c9b6a566508e34ba6e24a4f9d54604051808060200180602001838103835260048152602001807f6661696c00000000000000000000000000000000000000000000000000000000815250602001838103825260188152602001807f506861726d61637920616c7265616479206578697374732100000000000000008152506020019250505060405180910390a161319c565b604051806080016040528086868080601f016020809104026020016040519081016040528093929190818152602001838380828437600081840152601f19601f82011690508083019250505050505050815260200184848080601f016020809104026020016040519081016040528093929190818152602001838380828437600081840152601f19601f82011690508083019250505050505050815260200182815260200160011515815250600460008873ffffffffffffffffffffffffffffffffffffffff1673ffffffffffffffffffffffffffffffffffffffff16815260200190815260200160002060008201518160000190805190602001906130af9291906148eb565b5060208201518160010190805190602001906130cc9291906148eb565b506040820151816002015560608201518160030160006101000a81548160ff0219169083151502179055509050507f5092718938618a5971055ba9320e5c21b8714c9b6a566508e34ba6e24a4f9d54604051808060200180602001838103835260078152602001807f73756363657373000000000000000000000000000000000000000000000000008152506020018381038252601c8152602001807f506861726d616379205375636365737366756c6c7920616464656421000000008152506020019250505060405180910390a15b505050505050565b60011515600160003373ffffffffffffffffffffffffffffffffffffffff1673ffffffffffffffffffffffffffffffffffffffff16815260200190815260200160002060030160009054906101000a900460ff161515146132a5577f5092718938618a5971055ba9320e5c21b8714c9b6a566508e34ba6e24a4f9d54604051808060200180602001838103835260048152602001807f6661696c00000000000000000000000000000000000000000000000000000000815250602001838103825260148152602001807f70617469656e74206e6f742020657869737473210000000000000000000000008152506020019250505060405180910390a16134f1565b3383604051602001808373ffffffffffffffffffffffffffffffffffffffff1673ffffffffffffffffffffffffffffffffffffffff1660601b81526014018273ffffffffffffffffffffffffffffffffffffffff1673ffffffffffffffffffffffffffffffffffffffff1660601b8152601401925050506040516020818303038152906040528051906020012060008084815260200190815260200160002060010154146133f3577f5092718938618a5971055ba9320e5c21b8714c9b6a566508e34ba6e24a4f9d54604051808060200180602001838103835260048152602001807f6661696c00000000000000000000000000000000000000000000000000000000815250602001838103825260188152602001807f4b657920766572696669636174696f6e206661696c65642100000000000000008152506020019250505060405180910390a16134f1565b6000808381526020019081526020016000206003018190806001815401808255809150509060018203906000526020600020016000909192909190916101000a81548173ffffffffffffffffffffffffffffffffffffffff021916908373ffffffffffffffffffffffffffffffffffffffff160217905550507f5092718938618a5971055ba9320e5c21b8714c9b6a566508e34ba6e24a4f9d54604051808060200180602001838103835260078152602001807f737563636573730000000000000000000000000000000000000000000000000081525060200183810382526024815260200180614a34602491396040019250505060405180910390a15b505050565b6004602052806000526040600020600091509050806000018054600181600116156101000203166002900480601f0160208091040260200160405190810160405280929190818152602001828054600181600116156101000203166002900480156135a25780601f10613577576101008083540402835291602001916135a2565b820191906000526020600020905b81548152906001019060200180831161358557829003601f168201915b505050505090806001018054600181600116156101000203166002900480601f0160208091040260200160405190810160405280929190818152602001828054600181600116156101000203166002900480156136405780601f1061361557610100808354040283529160200191613640565b820191906000526020600020905b81548152906001019060200180831161362357829003601f168201915b5050505050908060020154908060030160009054906101000a900460ff16905084565b606080606080600260009054906101000a900473ffffffffffffffffffffffffffffffffffffffff1673ffffffffffffffffffffffffffffffffffffffff163373ffffffffffffffffffffffffffffffffffffffff1614613761576040518060400160405280600481526020017f6661696c0000000000000000000000000000000000000000000000000000000081525091506040518060400160405280601281526020017f4f6e6c792061646d696e2063616e206164640000000000000000000000000000815250905081816040518060200160405280600081525091906040518060200160405280600081525091909350935093509350613998565b600360008673ffffffffffffffffffffffffffffffffffffffff1673ffffffffffffffffffffffffffffffffffffffff1681526020019081526020016000206000018054600181600116156101000203166002900480601f0160208091040260200160405190810160405280929190818152602001828054600181600116156101000203166002900480156138375780601f1061380c57610100808354040283529160200191613837565b820191906000526020600020905b81548152906001019060200180831161381a57829003601f168201915b50505050509350600360008673ffffffffffffffffffffffffffffffffffffffff1673ffffffffffffffffffffffffffffffffffffffff1681526020019081526020016000206002018054600181600116156101000203166002900480601f0160208091040260200160405190810160405280929190818152602001828054600181600116156101000203166002900480156139145780601f106138e957610100808354040283529160200191613914565b820191906000526020600020905b8154815290600101906020018083116138f757829003601f168201915b505050505092506040518060400160405280600781526020017f737563636573730000000000000000000000000000000000000000000000000081525091506040518060400160405280600781526020017f737563636573730000000000000000000000000000000000000000000000000081525090508383838393509350935093505b9193509193565b606080600260009054906101000a900473ffffffffffffffffffffffffffffffffffffffff1673ffffffffffffffffffffffffffffffffffffffff163373ffffffffffffffffffffffffffffffffffffffff161415613a73576040518060400160405280600781526020017f737563636573730000000000000000000000000000000000000000000000000081525091506040518060400160405280600e81526020017f57656c636f6d652041646d696e210000000000000000000000000000000000008152509050818191509150613ae4565b6040518060400160405280600481526020017f6661696c0000000000000000000000000000000000000000000000000000000081525091506040518060400160405280601281526020017f596f7520617265206e6f742061646d696e21000000000000000000000000000081525090505b9091565b60011515600160003373ffffffffffffffffffffffffffffffffffffffff1673ffffffffffffffffffffffffffffffffffffffff16815260200190815260200160002060030160009054906101000a900460ff16151514613be9577f5092718938618a5971055ba9320e5c21b8714c9b6a566508e34ba6e24a4f9d54604051808060200180602001838103835260048152602001807f6661696c00000000000000000000000000000000000000000000000000000000815250602001838103825260148152602001807f70617469656e74206e6f742020657869737473210000000000000000000000008152506020019250505060405180910390a1613e3c565b3384604051602001808373ffffffffffffffffffffffffffffffffffffffff1673ffffffffffffffffffffffffffffffffffffffff1660601b81526014018273ffffffffffffffffffffffffffffffffffffffff1673ffffffffffffffffffffffffffffffffffffffff1660601b815260140192505050604051602081830303815290604052805190602001206000808581526020019081526020016000206001015414613d37577f5092718938618a5971055ba9320e5c21b8714c9b6a566508e34ba6e24a4f9d54604051808060200180602001838103835260048152602001807f6661696c00000000000000000000000000000000000000000000000000000000815250602001838103825260188152602001807f4b657920766572696669636174696f6e206661696c65642100000000000000008152506020019250505060405180910390a1613e3c565b81813360405160200180848480828437808301925050508273ffffffffffffffffffffffffffffffffffffffff1673ffffffffffffffffffffffffffffffffffffffff1660601b8152601401935050505060405160208183030381529060405280519060200120600080858152602001908152602001600020600201819055507f5092718938618a5971055ba9320e5c21b8714c9b6a566508e34ba6e24a4f9d54604051808060200180602001838103835260078152602001807f737563636573730000000000000000000000000000000000000000000000000081525060200183810382526024815260200180614a34602491396040019250505060405180910390a15b50505050565b60608060011515600360003373ffffffffffffffffffffffffffffffffffffffff1673ffffffffffffffffffffffffffffffffffffffff16815260200190815260200160002060050160009054906101000a900460ff1615151415613f1c576040518060400160405280600781526020017f737563636573730000000000000000000000000000000000000000000000000081525091506040518060400160405280601181526020017f596f7520617265206120646f63746f72210000000000000000000000000000008152509050818191509150613f8d565b6040518060400160405280600481526020017f6661696c0000000000000000000000000000000000000000000000000000000081525091506040518060400160405280601581526020017f596f7520617265206e6f74206120646f63746f7221000000000000000000000081525090505b9091565b60016020528060005260406000206000915090508060000154908060020154908060030160009054906101000a900460ff16905083565b60008060018060008573ffffffffffffffffffffffffffffffffffffffff1673ffffffffffffffffffffffffffffffffffffffff16815260200190815260200160002060010180549050016103e8600160008673ffffffffffffffffffffffffffffffffffffffff1673ffffffffffffffffffffffffffffffffffffffff168152602001908152602001600020600001540201905080915050919050565b600260009054906101000a900473ffffffffffffffffffffffffffffffffffffffff1673ffffffffffffffffffffffffffffffffffffffff163373ffffffffffffffffffffffffffffffffffffffff1614614161577f5092718938618a5971055ba9320e5c21b8714c9b6a566508e34ba6e24a4f9d54604051808060200180602001838103835260048152602001807f6661696c00000000000000000000000000000000000000000000000000000000815250602001838103825260128152602001807f4f6e6c792061646d696e2063616e2061646400000000000000000000000000008152506020019250505060405180910390a16143a6565b60011515600160008473ffffffffffffffffffffffffffffffffffffffff1673ffffffffffffffffffffffffffffffffffffffff16815260200190815260200160002060030160009054906101000a900460ff1615151415614263577f5092718938618a5971055ba9320e5c21b8714c9b6a566508e34ba6e24a4f9d54604051808060200180602001838103835260048152602001807f6661696c00000000000000000000000000000000000000000000000000000000815250602001838103825260178152602001807f50617469656e7420616c726561647920657869737473210000000000000000008152506020019250505060405180910390a16143a6565b80600160008473ffffffffffffffffffffffffffffffffffffffff1673ffffffffffffffffffffffffffffffffffffffff1681526020019081526020016000206000018190555060018060008473ffffffffffffffffffffffffffffffffffffffff1673ffffffffffffffffffffffffffffffffffffffff16815260200190815260200160002060030160006101000a81548160ff0219169083151502179055507f5092718938618a5971055ba9320e5c21b8714c9b6a566508e34ba6e24a4f9d54604051808060200180602001838103835260078152602001807f73756363657373000000000000000000000000000000000000000000000000008152506020018381038252601b8152602001807f50617469656e74205375636365737366756c6c792061646465642100000000008152506020019250505060405180910390a15b5050565b60011515600360003373ffffffffffffffffffffffffffffffffffffffff1673ffffffffffffffffffffffffffffffffffffffff16815260200190815260200160002060050160009054906101000a900460ff161515146144ab577f5092718938618a5971055ba9320e5c21b8714c9b6a566508e34ba6e24a4f9d54604051808060200180602001838103835260048152602001807f6661696c00000000000000000000000000000000000000000000000000000000815250602001838103825260208152602001807f596f752061726520617574686f72697a656420746f20766965772074686973218152506020019250505060405180910390a161483f565b8133604051602001808373ffffffffffffffffffffffffffffffffffffffff1673ffffffffffffffffffffffffffffffffffffffff1660601b81526014018273ffffffffffffffffffffffffffffffffffffffff1673ffffffffffffffffffffffffffffffffffffffff1660601b8152601401925050506040516020818303038152906040528051906020012060008086815260200190815260200160002060010154146145f9577f5092718938618a5971055ba9320e5c21b8714c9b6a566508e34ba6e24a4f9d54604051808060200180602001838103835260048152602001807f6661696c00000000000000000000000000000000000000000000000000000000815250602001838103825260188152602001807f4b657920766572696669636174696f6e206661696c65642100000000000000008152506020019250505060405180910390a161483f565b82826040516020018083805190602001908083835b60208310614631578051825260208201915060208101905060208303925061460e565b6001836020036101000a0380198251168184511680821785525050505050509050018273ffffffffffffffffffffffffffffffffffffffff1673ffffffffffffffffffffffffffffffffffffffff1660601b81526014019250505060405160208183030381529060405280519060200120600160008473ffffffffffffffffffffffffffffffffffffffff1673ffffffffffffffffffffffffffffffffffffffff1681526020019081526020016000206002015414614790577f5092718938618a5971055ba9320e5c21b8714c9b6a566508e34ba6e24a4f9d54604051808060200180602001838103835260048152602001807f6661696c000000000000000000000000000000000000000000000000000000008152506020018381038252600c8152602001807f496e76616c6964204f54502100000000000000000000000000000000000000008152506020019250505060405180910390a161483f565b8060008086815260200190815260200160002060000190805190602001906147b992919061496b565b507f5092718938618a5971055ba9320e5c21b8714c9b6a566508e34ba6e24a4f9d54604051808060200180602001838103835260078152602001807f73756363657373000000000000000000000000000000000000000000000000008152506020018381038252602a815260200180614aa9602a91396040019250505060405180910390a15b50505050565b600260009054906101000a900473ffffffffffffffffffffffffffffffffffffffff1681565b828054600181600116156101000203166002900490600052602060002090601f016020900481019282601f106148ac57803560ff19168380011785556148da565b828001600101855582156148da579182015b828111156148d95782358255916020019190600101906148be565b5b5090506148e791906149eb565b5090565b828054600181600116156101000203166002900490600052602060002090601f016020900481019282601f1061492c57805160ff191683800117855561495a565b8280016001018555821561495a579182015b8281111561495957825182559160200191906001019061493e565b5b50905061496791906149eb565b5090565b828054600181600116156101000203166002900490600052602060002090601f016020900481019282601f106149ac57805160ff19168380011785556149da565b828001600101855582156149da579182015b828111156149d95782518255916020019190600101906149be565b5b5090506149e791906149eb565b5090565b614a0d91905b80821115614a095760008160009055506001016149f1565b5090565b9056fe446f63746f7220686173206265656e206164646564207375636365737366756c6c7921507265736372697074696f6e204f5450207265736574207375636365737366756c6c79214f6e6c792061646d696e2063616e207265676973746572206120646f63746f7221596f7520617265206e6f7420617574686f72697a656420746f20766965772074686520707265736372697074696f6e21507265736372697074696f6e20686173206265656e20656469746564207375636365737366756c6c7921a265627a7a72315820fdd31d2cf1b50f58af1eddafd9e29c65a50c36d13a1d4172171563071ec2f43564736f6c63430005100032",
  "source": "// SPDX-License-Identifier: GPL-3.0\npragma solidity >= 0.5 .0 < 0.9 .0;\n\n//0xAb8483F64d9C6d1EcF9b849Ae677dD3315835cb2\n//0x4B20993Bc481177ec7E8f571ceCaE8A9e22C02db\n//0x78731D3Ca6b7E34aC0F824c42a7cC18A495cabaB\n\ncontract Healthcare {\n\n\n    //struct Prescription\n\n    struct Prescription {\n        string prescription;\n        bytes32 key;\n        bytes32 otp;\n        address[] authorizedPersons;\n        bool exist;\n\n    }\n    \n    event ReturnValue(string _status, string _msg);\n\n    mapping(uint256 => Prescription) public PrescriptionList;\n\n    // struct Patient\n\n    struct Patient {\n        uint256 aadhaar;\n        uint256[] prescriptions;\n        bytes32 otp;\n        bool exist;\n    }\n\n\n    mapping(address => Patient) public PatientList;\n\n\n    address public admin;\n\n    // constructor\n\n    constructor() public{\n        admin = msg.sender; // make admin who deployed the contract\n    }\n    \n    function isAdmin() external view returns(string memory _status, string memory _msg) {\n        if(msg.sender == admin){\n            _status = \"success\";\n            _msg = \"Welcome Admin!\";\n            return (_status, _msg);\n        }else{\n            \n            _status = \"fail\";\n            _msg = \"You are not admin!\";\n        }\n    }\n    function isDoctor() external view returns(string memory _status, string memory _msg) {\n        if(DoctorList[msg.sender].exist == true){\n            _status = \"success\";\n            _msg = \"You are a doctor!\";\n            return (_status, _msg);\n        }else{\n            \n            _status = \"fail\";\n            _msg = \"You are not a doctor!\";\n        }\n    }\n    \n    function isPatient() external view returns(string memory _status, string memory _msg) {\n        if (PatientList[msg.sender].exist == true){\n            _status = \"success\";\n            _msg = \"You are a patient!\";\n            return (_status, _msg);\n        }else{\n            \n            _status = \"fail\";\n            _msg = \"You are not a patient!\";\n        }\n    }\n    function isPharmacy() external view returns(string memory _status, string memory _msg) {\n        if (PharmacyList[msg.sender].exist == true){\n            _status = \"success\";\n            _msg = \"It is a Pharmacy!\";\n            return (_status, _msg);\n        }else{\n            \n            _status = \"fail\";\n            _msg = \"It is not a Pharmacy!\";\n        }\n    }\n    /*\n     **\n     **  function addPatient(address patientAddr, uint256 _aadhaar, string calldata _name,  string calldata _dob,  string calldata _gender, \n     *                       string calldata _bloodGroup, uint256 _emergencyContact)\n     **\n     **  Parameters          :   patientAddr         - Patient Address\n     **                          _aadhaar            - Aadhaar number of the Patient\n     **                          \n     **  \n     **  Description: Only admin can register a patient if patient is not already exist \n     **\n     **\n     */\n\n    function addPatient(address patientAddr, uint256 _aadhaar) external{\n\n        if (msg.sender != admin) {\n\n            emit ReturnValue(\"fail\", \"Only admin can add\");\n            return;\n\n        } else if (PatientList[patientAddr].exist == true) {\n\n            emit ReturnValue(\"fail\", \"Patient already exists!\");\n            return;\n\n        }\n        PatientList[patientAddr].aadhaar = _aadhaar;\n        PatientList[patientAddr].exist = true;\n\n        emit ReturnValue(\"success\", \"Patient Successfully added!\");\n\n    }\n\n    /*function modifyPatient( string calldata _name,  string calldata _dob,  string calldata _gender, \n    string calldata _bloodGroup, uint256 _emergencyContact) external{\n        require(PatientList[msg.sender].exist==true, 'patient not  exists');\n        PatientList[msg.sender].name = _name;\n        PatientList[msg.sender].dob = _dob;\n        PatientList[msg.sender].gender = _gender;\n        PatientList[msg.sender].bloodGroup = _bloodGroup;\n        PatientList[msg.sender].emergencyContact = _emergencyContact;\n    }\n    */\n    function resetOTP(string calldata _otp) external {\n\n        if (PatientList[msg.sender].exist != true) {\n            emit ReturnValue(\"fail\", \"patient not  exists!\");\n            return;\n        }\n        \n        PatientList[msg.sender].otp = keccak256(abi.encodePacked(_otp, msg.sender));\n        emit ReturnValue(\"success\", \"OTP has been reset successfully!\");\n        return;\n    }\n\n    /*function getPatDetails(address patientAddr) public view returns(uint256 _aadhaar, string memory _name, string memory _dob,\n    string memory _gender, string memory _bloodGroup, uint256 _emergencyContact){\n         require(msg.sender==admin || msg.sender==patientAddr, 'You are not authorized!');\n        _aadhaar = PatientList[patientAddr].aadhaar;\n        _name = PatientList[patientAddr].name; \n        _dob = PatientList[patientAddr].dob; \n        _gender = PatientList[patientAddr].gender; \n        _bloodGroup = PatientList[patientAddr].bloodGroup; \n        _emergencyContact = PatientList[patientAddr].emergencyContact; \n        \n   }*/\n\n    struct Doctor {\n        string RegNo;\n        string medCouncilName;\n        string name;\n        string areaExpertize;\n        uint256 contactNo;\n        bool exist;\n    }\n\n    mapping(address => Doctor) public DoctorList;\n\n    /*\n     **\n     **  function addDoctor(address docAddr, string calldata _RegNo, string calldata _medCouncilName,  string calldata _name,  string calldata _areaExpertize, uint256 _contactNo)\n     **\n     **  Parameters          :   _docAddr            - Doctor Address\n     **                          _RegNo              - Registration number of the Doctor\n     **                          _medCouncilName     - Medical Council Name of the Doctor\n     **                          _name               - Name of the Doctor\n     **                          _areaExpertize      - Area of Expertize of the Doctor\n     **  \n     **  Description: Only admin can register a Doctor if Doctor is not already exist \n     **\n     **\n     */\n\n    function addDoctor(address _docAddr, string calldata _RegNo, string calldata _medCouncilName, string calldata _name, string calldata _areaExpertize, uint256 _contactNo) external{\n       \n        if (msg.sender != admin) {\n            emit ReturnValue(\"fail\", \"Only admin can register a doctor!\");\n            return;\n            \n        }else if (DoctorList[_docAddr].exist == true) {\n            emit ReturnValue(\"fail\", \"Doctor already exists\");\n            return;\n        }\n        DoctorList[_docAddr] = Doctor(_RegNo, _medCouncilName, _name, _areaExpertize, _contactNo, true);\n        emit ReturnValue(\"success\", \"Doctor has been added successfully!\");\n        return;\n        \n        \n    }\n\n    function getDocDetails(address docAddr) public view returns(string memory _RegNo, string memory _name, string memory _status, string memory _msg) {\n\n        if (msg.sender != admin) {\n            _status = \"fail\";\n            _msg = \"Only admin can add\";\n            return (\"\", \"\", _status, _msg);\n        }\n        _RegNo = DoctorList[docAddr].RegNo;\n        _name = DoctorList[docAddr].name;\n        _status = \"success\";\n        _msg = \"success\";\n        return (_RegNo, _name, _status, _msg);\n    }\n\n\n\n    // struct Pharmacy\n\n    struct Pharmacy {\n        string RegNo;\n        string name;\n        uint256 contactNo;\n        bool exist;\n    }\n    mapping(address => Pharmacy) public PharmacyList;\n\n    /*\n     **\n     **  function addPharmacy(address _pharmAddr, string calldata _RegNo,  string calldata _name, uint256 _contactNo)\n     **\n     **  Parameters          :   _pharmAddr          - Pharmacy Address\n     **                          _RegNo              - Registration number of the Pharmacy\n     **                          _name               - Name of the Pharmacy\n     **                          _contactNo          - Contact number of the Pharmacy\n     **  \n     **  Description: Only admin can register a Pharmacy if Pharmacy is not already exist \n     **\n     **\n     */\n\n    function addPharmacy(address _pharmAddr, string calldata _RegNo, string calldata _name, uint256 _contactNo) external{\n\n        if (msg.sender != admin) {\n\n            emit ReturnValue(\"fail\", \"Only admin can add\");\n            return;\n            \n\n        } else if (PharmacyList[_pharmAddr].exist == true) {\n\n            emit ReturnValue(\"fail\", \"Pharmacy already exists!\");\n            return;\n        }\n\n        PharmacyList[_pharmAddr] = Pharmacy(_RegNo, _name, _contactNo, true);\n        emit ReturnValue(\"success\", \"Pharmacy Successfully added!\");\n        return;\n    }\n\n    event PrescriptionEvent(\n        address _docAddr,\n        address _patAddr,\n        uint256 _value\n    );\n\n\n    function createPrescriptionID(address _patientAddr) public view returns(uint256) {\n        uint prescriptionID = (PatientList[_patientAddr].aadhaar) * 1000 + (PatientList[_patientAddr].prescriptions.length + 1);\n        return prescriptionID;\n    }\n\n\n\n    /*\n     **\n     **  function addPrescription(address _patientAddr, string memory _patOtp,string memory _prescription) \n     **\n     **  Parameters           :   _patientAddr       - Patient Address\n     **                           _patOtp            - OTP of the Patient \n     **                           _prescription      - Prescription\n     **\n     **  Description         :   If the user already registered as Doctor, and he/she has Patient Address, and Patient OTP\n     **                          then he/she can add the Prescription\n     ** \n     **\n     */\n\n    function addPrescription(address _patientAddr, string calldata _patOtp, string calldata _prescription) external{\n        \n        \n        if (DoctorList[msg.sender].exist != true) {\n\n            emit ReturnValue(\"fail\", \"You are not a doctor!\");\n            return;\n\n        }else  if (PatientList[_patientAddr].otp != keccak256(abi.encodePacked(_patOtp, _patientAddr))) {\n\n            emit ReturnValue(\"fail\", \"Invalid OTP\");\n            return;\n\n        }  \n\n        uint256 prescriptionID = createPrescriptionID(_patientAddr);\n        bytes32 key = keccak256(abi.encodePacked(_patientAddr, msg.sender));\n\n        PrescriptionList[prescriptionID].prescription = _prescription;\n        PrescriptionList[prescriptionID].key = key;\n        PrescriptionList[prescriptionID].authorizedPersons.push(msg.sender);\n        PrescriptionList[prescriptionID].authorizedPersons.push(_patientAddr);\n        PrescriptionList[prescriptionID].exist = true;\n\n        PatientList[_patientAddr].prescriptions.push(prescriptionID);\n        emit PrescriptionEvent(msg.sender, _patientAddr, prescriptionID);\n        \n        emit ReturnValue(\"success\", \"Prescription Successfully added!\");\n        return;\n    }\n\n\n\n\n    /*\n     **\n     **  function editPrescription(uint256 _prescriptionID, string memory _prescriptionOtp,address _patientAddr, string memory _prescription)\n     **\n     **  Parameters           :   _prescriptionID    - Prescription Id\n     **                           _prescriptionOtp   - OTP of the Prescription \n     **                           _patientAddr       - Patient Address\n     **                           _prescription      - New Prescription\n     **\n     **  Description         :   If the user already registered as Doctor, and he/she has Patient Address, and Prescription OTP\n     **                          key which is generated from patient address and msg.sender, is matched with the Prescription key \n     **                          then he/she can edit the Prescription\n     ** \n     **\n     */\n\n    function editPrescription(uint256 _prescriptionID, string memory _prescriptionOtp, address _patientAddr, string memory _prescription) public {\n      \n        if (DoctorList[msg.sender].exist != true) {\n\n            emit ReturnValue(\"fail\", \"You are authorized to view this!\");\n            return;\n\n        }else  if (PrescriptionList[_prescriptionID].key != keccak256(abi.encodePacked(_patientAddr, msg.sender))) {\n\n            emit ReturnValue(\"fail\", \"Key verification failed!\");\n            return;\n\n        }else  if (PatientList[_patientAddr].otp != keccak256(abi.encodePacked(_prescriptionOtp, _patientAddr))) {\n\n            emit ReturnValue(\"fail\", \"Invalid OTP!\");\n            return;\n\n        }    \n\n        PrescriptionList[_prescriptionID].prescription = _prescription;\n        emit ReturnValue(\"success\", \"Prescription has been edited successfully!\");\n       return;\n    }\n\n\n\n\n    /*\n     **\n     **  function resetPrescriptionOTP( address _docAddr, uint256 _prescriptionID, string calldata _otp) \n     **\n     **  Parameters           :   _docAddr           - Doctor Address\n     **                           _prescriptionID    - Prescription Id\n     **                           _otp               - OTP of the Prescription which is going to set\n     **\n     **  Description         :   If the user already registered as Patient, and he/she has Doctor Address, and\n     **                          key which is generated from msg.sender and doctor address is matched with the Prescription key \n     **                          then he/she can set the OTP of the Prescription\n     ** \n     **\n     */\n\n    function resetPrescriptionOTP(address _docAddr, uint256 _prescriptionID, string calldata _otp) external{\n\n        if (PatientList[msg.sender].exist != true) {\n\n            emit ReturnValue(\"fail\", \"patient not  exists!\");\n            return;\n\n        }else  if (PrescriptionList[_prescriptionID].key !=  keccak256(abi.encodePacked(msg.sender, _docAddr))) {\n\n            emit ReturnValue(\"fail\", \"Key verification failed!\");\n            return;\n\n        }\n\n        PrescriptionList[_prescriptionID].otp = keccak256(abi.encodePacked(_otp, msg.sender));\n        \n        emit ReturnValue(\"success\", \"Prescription OTP reset successfully!\");\n        return;\n\n    }\n\n\n\n\n    /*\n     **\n     **  function addAuthPerson( address _docAddr, uint256 _prescriptionID, address _authrizedPerson)\n     **\n     **  Parameters           :   _docAddr           - Doctor Address\n     **                           _prescriptionID    - Prescription Id\n     **                           _authrizedPerson   - address of the user, who will be authorized to view the Prescription\n     **\n     **  Description         :   If the user already register as Patient or Doctor or Pharmacy, and he/she has otp, and authorized person \n     **                          then he/she can view the Prescription\n     ** \n     **\n     */\n\n    function addAuthPerson(address _docAddr, uint256 _prescriptionID, address _authrizedPerson) external{\n       \n        if (PatientList[msg.sender].exist != true) {\n\n            emit ReturnValue(\"fail\", \"patient not  exists!\");\n            return;\n\n        }else  if (PrescriptionList[_prescriptionID].key !=  keccak256(abi.encodePacked(msg.sender, _docAddr))) {\n\n            emit ReturnValue(\"fail\", \"Key verification failed!\");\n            return;\n\n        }\n        PrescriptionList[_prescriptionID].authorizedPersons.push(_authrizedPerson);\n        \n        emit ReturnValue(\"success\", \"Prescription OTP reset successfully!\");\n        return;\n\n    }\n\n\n\n\n    /*\n     **\n     **  function getPrescription(address _patientAddr, uint256 _prescriptionID, string  memory _otp)\n     **\n     **  Parameters           :   _patientAddr       - Patient Address\n     **                           _prescriptionID    - Prescription Id\n     **                           _otp               - OTP for accessing Prescription\n     **\n     **  Return             :    _prescription       - Prescription\n     **  \n     **\n     **  Description         :   If the user already register as Patient or Doctor or Pharmacy, and he/she has otp, and authorized person \n     *                           then he/she can view the Prescription\n     ** \n     **\n     */\n\n    function getPrescription(address _patientAddr, uint256 _prescriptionID, string memory _otp) public view returns(string memory _prescription, string memory _status, string memory _msg) {\n        \n        _prescription = \"\";\n        if (DoctorList[msg.sender].exist != true || PharmacyList[msg.sender].exist != true || PatientList[msg.sender].exist != true) {\n\n            _status = \"fail\";\n            _msg = \"You are not authorized!\";\n            return (_prescription, _status, _msg);\n\n        }else  if (PrescriptionList[_prescriptionID].exist != true) {\n\n            _status = \"fail\";\n            _msg = \"Wrong Prescription ID!\";\n            return (_prescription, _status, _msg);\n\n        }\n        \n        bool authorized = false;\n\n        //check user is authorized person or not\n\n        for (uint i = 0; i < PrescriptionList[_prescriptionID].authorizedPersons.length; i++) {\n            if (PrescriptionList[_prescriptionID].authorizedPersons[i] == msg.sender) {\n                authorized = true; // if user address exists in authorizedPersons array of PrescriptionList, then change the authorized value to true\n                break;\n            }\n        }\n\n        if (authorized == true && PrescriptionList[_prescriptionID].otp == keccak256(abi.encodePacked(_otp, _patientAddr))) {\n\n            _prescription = PrescriptionList[_prescriptionID].prescription;\n            _status = \"success\";\n            _msg = \"success\";\n            return (_prescription, _status, _msg);\n\n        }else{\n            \n            _status = \"fail\";\n            _msg = \"You are not authorized to view the prescription!\";\n            return (_prescription, _status, _msg);\n        }\n       \n\n    }\n\n}",
  "sourcePath": "/home/moumita/healthcare_2/contracts/Healthcare.sol",
  "compiler": {
    "name": "solc",
    "version": "0.5.16+commit.9c3226ce.Emscripten.clang"
  },
  "schemaVersion": "3.4.1",
  "updatedAt": "2021-07-09T18:27:23.555Z",
  "networkType": "ethereum",
  "devdoc": {
    "methods": {}
  },
  "userdoc": {
    "methods": {}
  }
}