{
  "contractName": "Healthcare",
  "abi": [
    {
      "inputs": [],
      "payable": false,
      "stateMutability": "nonpayable",
      "type": "constructor"
    },
    {
      "anonymous": false,
      "inputs": [
        {
          "indexed": false,
          "internalType": "address",
          "name": "_docAddr",
          "type": "address"
        },
        {
          "indexed": false,
          "internalType": "address",
          "name": "_patAddr",
          "type": "address"
        },
        {
          "indexed": false,
          "internalType": "uint256",
          "name": "_value",
          "type": "uint256"
        }
      ],
      "name": "PrescriptionEvent",
      "type": "event"
    },
    {
      "constant": true,
      "inputs": [
        {
          "internalType": "address",
          "name": "",
          "type": "address"
        }
      ],
      "name": "DoctorList",
      "outputs": [
        {
          "internalType": "string",
          "name": "RegNo",
          "type": "string"
        },
        {
          "internalType": "string",
          "name": "medCouncilName",
          "type": "string"
        },
        {
          "internalType": "string",
          "name": "name",
          "type": "string"
        },
        {
          "internalType": "string",
          "name": "areaExpertize",
          "type": "string"
        },
        {
          "internalType": "uint256",
          "name": "contactNo",
          "type": "uint256"
        },
        {
          "internalType": "bool",
          "name": "exist",
          "type": "bool"
        }
      ],
      "payable": false,
      "stateMutability": "view",
      "type": "function"
    },
    {
      "constant": true,
      "inputs": [
        {
          "internalType": "address",
          "name": "",
          "type": "address"
        }
      ],
      "name": "PatientList",
      "outputs": [
        {
          "internalType": "uint256",
          "name": "aadhaar",
          "type": "uint256"
        },
        {
          "internalType": "bytes32",
          "name": "otp",
          "type": "bytes32"
        },
        {
          "internalType": "bool",
          "name": "exist",
          "type": "bool"
        }
      ],
      "payable": false,
      "stateMutability": "view",
      "type": "function"
    },
    {
      "constant": true,
      "inputs": [
        {
          "internalType": "address",
          "name": "",
          "type": "address"
        }
      ],
      "name": "PharmacyList",
      "outputs": [
        {
          "internalType": "string",
          "name": "RegNo",
          "type": "string"
        },
        {
          "internalType": "string",
          "name": "name",
          "type": "string"
        },
        {
          "internalType": "uint256",
          "name": "contactNo",
          "type": "uint256"
        },
        {
          "internalType": "bool",
          "name": "exist",
          "type": "bool"
        }
      ],
      "payable": false,
      "stateMutability": "view",
      "type": "function"
    },
    {
      "constant": true,
      "inputs": [
        {
          "internalType": "uint256",
          "name": "",
          "type": "uint256"
        }
      ],
      "name": "PrescriptionList",
      "outputs": [
        {
          "internalType": "string",
          "name": "prescription",
          "type": "string"
        },
        {
          "internalType": "bytes32",
          "name": "key",
          "type": "bytes32"
        },
        {
          "internalType": "bytes32",
          "name": "otp",
          "type": "bytes32"
        },
        {
          "internalType": "bool",
          "name": "exist",
          "type": "bool"
        }
      ],
      "payable": false,
      "stateMutability": "view",
      "type": "function"
    },
    {
      "constant": true,
      "inputs": [],
      "name": "admin",
      "outputs": [
        {
          "internalType": "address",
          "name": "",
          "type": "address"
        }
      ],
      "payable": false,
      "stateMutability": "view",
      "type": "function"
    },
    {
      "constant": true,
      "inputs": [],
      "name": "isAdmin",
      "outputs": [
        {
          "internalType": "string",
          "name": "_status",
          "type": "string"
        },
        {
          "internalType": "string",
          "name": "_msg",
          "type": "string"
        }
      ],
      "payable": false,
      "stateMutability": "view",
      "type": "function"
    },
    {
      "constant": true,
      "inputs": [],
      "name": "isDoctor",
      "outputs": [
        {
          "internalType": "string",
          "name": "_status",
          "type": "string"
        },
        {
          "internalType": "string",
          "name": "_msg",
          "type": "string"
        }
      ],
      "payable": false,
      "stateMutability": "view",
      "type": "function"
    },
    {
      "constant": true,
      "inputs": [],
      "name": "isPatient",
      "outputs": [
        {
          "internalType": "string",
          "name": "_status",
          "type": "string"
        },
        {
          "internalType": "string",
          "name": "_msg",
          "type": "string"
        }
      ],
      "payable": false,
      "stateMutability": "view",
      "type": "function"
    },
    {
      "constant": true,
      "inputs": [],
      "name": "isPharmacy",
      "outputs": [
        {
          "internalType": "string",
          "name": "_status",
          "type": "string"
        },
        {
          "internalType": "string",
          "name": "_msg",
          "type": "string"
        }
      ],
      "payable": false,
      "stateMutability": "view",
      "type": "function"
    },
    {
      "constant": false,
      "inputs": [
        {
          "internalType": "address",
          "name": "patientAddr",
          "type": "address"
        },
        {
          "internalType": "uint256",
          "name": "_aadhaar",
          "type": "uint256"
        }
      ],
      "name": "addPatient",
      "outputs": [
        {
          "internalType": "string",
          "name": "_status",
          "type": "string"
        },
        {
          "internalType": "string",
          "name": "_msg",
          "type": "string"
        }
      ],
      "payable": false,
      "stateMutability": "nonpayable",
      "type": "function"
    },
    {
      "constant": false,
      "inputs": [
        {
          "internalType": "string",
          "name": "_otp",
          "type": "string"
        }
      ],
      "name": "resetOTP",
      "outputs": [
        {
          "internalType": "string",
          "name": "_status",
          "type": "string"
        },
        {
          "internalType": "string",
          "name": "_msg",
          "type": "string"
        }
      ],
      "payable": false,
      "stateMutability": "nonpayable",
      "type": "function"
    },
    {
      "constant": false,
      "inputs": [
        {
          "internalType": "address",
          "name": "_docAddr",
          "type": "address"
        },
        {
          "internalType": "string",
          "name": "_RegNo",
          "type": "string"
        },
        {
          "internalType": "string",
          "name": "_medCouncilName",
          "type": "string"
        },
        {
          "internalType": "string",
          "name": "_name",
          "type": "string"
        },
        {
          "internalType": "string",
          "name": "_areaExpertize",
          "type": "string"
        },
        {
          "internalType": "uint256",
          "name": "_contactNo",
          "type": "uint256"
        }
      ],
      "name": "addDoctor",
      "outputs": [
        {
          "internalType": "string",
          "name": "_status",
          "type": "string"
        },
        {
          "internalType": "string",
          "name": "_msg",
          "type": "string"
        }
      ],
      "payable": false,
      "stateMutability": "nonpayable",
      "type": "function"
    },
    {
      "constant": true,
      "inputs": [
        {
          "internalType": "address",
          "name": "docAddr",
          "type": "address"
        }
      ],
      "name": "getDocDetails",
      "outputs": [
        {
          "internalType": "string",
          "name": "_RegNo",
          "type": "string"
        },
        {
          "internalType": "string",
          "name": "_name",
          "type": "string"
        },
        {
          "internalType": "string",
          "name": "_status",
          "type": "string"
        },
        {
          "internalType": "string",
          "name": "_msg",
          "type": "string"
        }
      ],
      "payable": false,
      "stateMutability": "view",
      "type": "function"
    },
    {
      "constant": false,
      "inputs": [
        {
          "internalType": "address",
          "name": "_pharmAddr",
          "type": "address"
        },
        {
          "internalType": "string",
          "name": "_RegNo",
          "type": "string"
        },
        {
          "internalType": "string",
          "name": "_name",
          "type": "string"
        },
        {
          "internalType": "uint256",
          "name": "_contactNo",
          "type": "uint256"
        }
      ],
      "name": "addPharmacy",
      "outputs": [
        {
          "internalType": "string",
          "name": "_status",
          "type": "string"
        },
        {
          "internalType": "string",
          "name": "_msg",
          "type": "string"
        }
      ],
      "payable": false,
      "stateMutability": "nonpayable",
      "type": "function"
    },
    {
      "constant": true,
      "inputs": [
        {
          "internalType": "address",
          "name": "_patientAddr",
          "type": "address"
        }
      ],
      "name": "createPrescriptionID",
      "outputs": [
        {
          "internalType": "uint256",
          "name": "",
          "type": "uint256"
        }
      ],
      "payable": false,
      "stateMutability": "view",
      "type": "function"
    },
    {
      "constant": false,
      "inputs": [
        {
          "internalType": "address",
          "name": "_patientAddr",
          "type": "address"
        },
        {
          "internalType": "string",
          "name": "_patOtp",
          "type": "string"
        },
        {
          "internalType": "string",
          "name": "_prescription",
          "type": "string"
        }
      ],
      "name": "addPrescription",
      "outputs": [
        {
          "internalType": "string",
          "name": "_status",
          "type": "string"
        },
        {
          "internalType": "string",
          "name": "_msg",
          "type": "string"
        }
      ],
      "payable": false,
      "stateMutability": "nonpayable",
      "type": "function"
    },
    {
      "constant": false,
      "inputs": [
        {
          "internalType": "uint256",
          "name": "_prescriptionID",
          "type": "uint256"
        },
        {
          "internalType": "string",
          "name": "_prescriptionOtp",
          "type": "string"
        },
        {
          "internalType": "address",
          "name": "_patientAddr",
          "type": "address"
        },
        {
          "internalType": "string",
          "name": "_prescription",
          "type": "string"
        }
      ],
      "name": "editPrescription",
      "outputs": [
        {
          "internalType": "string",
          "name": "_status",
          "type": "string"
        },
        {
          "internalType": "string",
          "name": "_msg",
          "type": "string"
        }
      ],
      "payable": false,
      "stateMutability": "nonpayable",
      "type": "function"
    },
    {
      "constant": false,
      "inputs": [
        {
          "internalType": "address",
          "name": "_docAddr",
          "type": "address"
        },
        {
          "internalType": "uint256",
          "name": "_prescriptionID",
          "type": "uint256"
        },
        {
          "internalType": "string",
          "name": "_otp",
          "type": "string"
        }
      ],
      "name": "resetPrescriptionOTP",
      "outputs": [
        {
          "internalType": "string",
          "name": "_status",
          "type": "string"
        },
        {
          "internalType": "string",
          "name": "_msg",
          "type": "string"
        }
      ],
      "payable": false,
      "stateMutability": "nonpayable",
      "type": "function"
    },
    {
      "constant": false,
      "inputs": [
        {
          "internalType": "address",
          "name": "_docAddr",
          "type": "address"
        },
        {
          "internalType": "uint256",
          "name": "_prescriptionID",
          "type": "uint256"
        },
        {
          "internalType": "address",
          "name": "_authrizedPerson",
          "type": "address"
        }
      ],
      "name": "addAuthPerson",
      "outputs": [
        {
          "internalType": "string",
          "name": "_status",
          "type": "string"
        },
        {
          "internalType": "string",
          "name": "_msg",
          "type": "string"
        }
      ],
      "payable": false,
      "stateMutability": "nonpayable",
      "type": "function"
    },
    {
      "constant": true,
      "inputs": [
        {
          "internalType": "address",
          "name": "_patientAddr",
          "type": "address"
        },
        {
          "internalType": "uint256",
          "name": "_prescriptionID",
          "type": "uint256"
        },
        {
          "internalType": "string",
          "name": "_otp",
          "type": "string"
        }
      ],
      "name": "getPrescription",
      "outputs": [
        {
          "internalType": "string",
          "name": "_prescription",
          "type": "string"
        },
        {
          "internalType": "string",
          "name": "_status",
          "type": "string"
        },
        {
          "internalType": "string",
          "name": "_msg",
          "type": "string"
        }
      ],
      "payable": false,
      "stateMutability": "view",
      "type": "function"
    }
  ],
  "bytecode": "0x608060405234801561001057600080fd5b5033600260006101000a81548173ffffffffffffffffffffffffffffffffffffffff021916908373ffffffffffffffffffffffffffffffffffffffff160217905550614ec5806100616000396000f3fe608060405234801561001057600080fd5b506004361061012c5760003560e01c8063b0d3c280116100ad578063bb99daa711610071578063bb99daa714611826578063bcb3b61c14611890578063bfbe4f22146118e8578063f5b2317214611a1b578063f851a44014611c7c5761012c565b8063b0d3c28014611184578063b28780ea146112bf578063b6db75a0146114c0578063b73f45df146115af578063b986b608146117375761012c565b80633bc0b053116100f45780633bc0b05314610b1857806356c409c814610c765780635962b43014610d655780635f5e19eb14610e545780637f5b1864146110315761012c565b8063037718ea146101315780630405354d146103675780630e4e8f3b1461057a5780631d80450a1461063a57806320baae9914610891575b600080fd5b6102146004803603606081101561014757600080fd5b81019080803573ffffffffffffffffffffffffffffffffffffffff169060200190929190803590602001909291908035906020019064010000000081111561018e57600080fd5b8201836020820111156101a057600080fd5b803590602001918460018302840111640100000000831117156101c257600080fd5b91908080601f016020809104026020016040519081016040528093929190818152602001838380828437600081840152601f19601f820116905080830192505050505050509192919290505050611cc6565b60405180806020018060200180602001848103845287818151815260200191508051906020019080838360005b8381101561025c578082015181840152602081019050610241565b50505050905090810190601f1680156102895780820380516001836020036101000a031916815260200191505b50848103835286818151815260200191508051906020019080838360005b838110156102c25780820151818401526020810190506102a7565b50505050905090810190601f1680156102ef5780820380516001836020036101000a031916815260200191505b50848103825285818151815260200191508051906020019080838360005b8381101561032857808201518184015260208101905061030d565b50505050905090810190601f1680156103555780820380516001836020036101000a031916815260200191505b50965050505050505060405180910390f35b6103a96004803603602081101561037d57600080fd5b81019080803573ffffffffffffffffffffffffffffffffffffffff16906020019092919050505061224d565b60405180806020018060200180602001806020018781526020018615151515815260200185810385528b818151815260200191508051906020019080838360005b838110156104055780820151818401526020810190506103ea565b50505050905090810190601f1680156104325780820380516001836020036101000a031916815260200191505b5085810384528a818151815260200191508051906020019080838360005b8381101561046b578082015181840152602081019050610450565b50505050905090810190601f1680156104985780820380516001836020036101000a031916815260200191505b50858103835289818151815260200191508051906020019080838360005b838110156104d15780820151818401526020810190506104b6565b50505050905090810190601f1680156104fe5780820380516001836020036101000a031916815260200191505b50858103825288818151815260200191508051906020019080838360005b8381101561053757808201518184015260208101905061051c565b50505050905090810190601f1680156105645780820380516001836020036101000a031916815260200191505b509a505050505050505050505060405180910390f35b6105a66004803603602081101561059057600080fd5b81019080803590602001909291905050506124f6565b604051808060200185815260200184815260200183151515158152602001828103825286818151815260200191508051906020019080838360005b838110156105fc5780820151818401526020810190506105e1565b50505050905090810190601f1680156106295780820380516001836020036101000a031916815260200191505b509550505050505060405180910390f35b6107aa6004803603606081101561065057600080fd5b81019080803573ffffffffffffffffffffffffffffffffffffffff1690602001909291908035906020019064010000000081111561068d57600080fd5b82018360208201111561069f57600080fd5b803590602001918460018302840111640100000000831117156106c157600080fd5b91908080601f016020809104026020016040519081016040528093929190818152602001838380828437600081840152601f19601f8201169050808301925050505050505091929192908035906020019064010000000081111561072457600080fd5b82018360208201111561073657600080fd5b8035906020019184600183028401116401000000008311171561075857600080fd5b91908080601f016020809104026020016040519081016040528093929190818152602001838380828437600081840152601f19601f8201169050808301925050505050505091929192905050506125cb565b604051808060200180602001838103835285818151815260200191508051906020019080838360005b838110156107ee5780820151818401526020810190506107d3565b50505050905090810190601f16801561081b5780820380516001836020036101000a031916815260200191505b50838103825284818151815260200191508051906020019080838360005b83811015610854578082015181840152602081019050610839565b50505050905090810190601f1680156108815780820380516001836020036101000a031916815260200191505b5094505050505060405180910390f35b610a31600480360360c08110156108a757600080fd5b81019080803573ffffffffffffffffffffffffffffffffffffffff169060200190929190803590602001906401000000008111156108e457600080fd5b8201836020820111156108f657600080fd5b8035906020019184600183028401116401000000008311171561091857600080fd5b90919293919293908035906020019064010000000081111561093957600080fd5b82018360208201111561094b57600080fd5b8035906020019184600183028401116401000000008311171561096d57600080fd5b90919293919293908035906020019064010000000081111561098e57600080fd5b8201836020820111156109a057600080fd5b803590602001918460018302840111640100000000831117156109c257600080fd5b9091929391929390803590602001906401000000008111156109e357600080fd5b8201836020820111156109f557600080fd5b80359060200191846001830284011164010000000083111715610a1757600080fd5b909192939192939080359060200190929190505050612b9e565b604051808060200180602001838103835285818151815260200191508051906020019080838360005b83811015610a75578082015181840152602081019050610a5a565b50505050905090810190601f168015610aa25780820380516001836020036101000a031916815260200191505b50838103825284818151815260200191508051906020019080838360005b83811015610adb578082015181840152602081019050610ac0565b50505050905090810190601f168015610b085780820380516001836020036101000a031916815260200191505b5094505050505060405180910390f35b610b8f60048036036020811015610b2e57600080fd5b8101908080359060200190640100000000811115610b4b57600080fd5b820183602082011115610b5d57600080fd5b80359060200191846001830284011164010000000083111715610b7f57600080fd5b9091929391929390505050612fb4565b604051808060200180602001838103835285818151815260200191508051906020019080838360005b83811015610bd3578082015181840152602081019050610bb8565b50505050905090810190601f168015610c005780820380516001836020036101000a031916815260200191505b50838103825284818151815260200191508051906020019080838360005b83811015610c39578082015181840152602081019050610c1e565b50505050905090810190601f168015610c665780820380516001836020036101000a031916815260200191505b5094505050505060405180910390f35b610c7e6131b8565b604051808060200180602001838103835285818151815260200191508051906020019080838360005b83811015610cc2578082015181840152602081019050610ca7565b50505050905090810190601f168015610cef5780820380516001836020036101000a031916815260200191505b50838103825284818151815260200191508051906020019080838360005b83811015610d28578082015181840152602081019050610d0d565b50505050905090810190601f168015610d555780820380516001836020036101000a031916815260200191505b5094505050505060405180910390f35b610d6d613307565b604051808060200180602001838103835285818151815260200191508051906020019080838360005b83811015610db1578082015181840152602081019050610d96565b50505050905090810190601f168015610dde5780820380516001836020036101000a031916815260200191505b50838103825284818151815260200191508051906020019080838360005b83811015610e17578082015181840152602081019050610dfc565b50505050905090810190601f168015610e445780820380516001836020036101000a031916815260200191505b5094505050505060405180910390f35b610f4a60048036036080811015610e6a57600080fd5b81019080803573ffffffffffffffffffffffffffffffffffffffff16906020019092919080359060200190640100000000811115610ea757600080fd5b820183602082011115610eb957600080fd5b80359060200191846001830284011164010000000083111715610edb57600080fd5b909192939192939080359060200190640100000000811115610efc57600080fd5b820183602082011115610f0e57600080fd5b80359060200191846001830284011164010000000083111715610f3057600080fd5b909192939192939080359060200190929190505050613456565b604051808060200180602001838103835285818151815260200191508051906020019080838360005b83811015610f8e578082015181840152602081019050610f73565b50505050905090810190601f168015610fbb5780820380516001836020036101000a031916815260200191505b50838103825284818151815260200191508051906020019080838360005b83811015610ff4578082015181840152602081019050610fd9565b50505050905090810190601f1680156110215780820380516001836020036101000a031916815260200191505b5094505050505060405180910390f35b61109d6004803603606081101561104757600080fd5b81019080803573ffffffffffffffffffffffffffffffffffffffff16906020019092919080359060200190929190803573ffffffffffffffffffffffffffffffffffffffff1690602001909291905050506137d4565b604051808060200180602001838103835285818151815260200191508051906020019080838360005b838110156110e15780820151818401526020810190506110c6565b50505050905090810190601f16801561110e5780820380516001836020036101000a031916815260200191505b50838103825284818151815260200191508051906020019080838360005b8381101561114757808201518184015260208101905061112c565b50505050905090810190601f1680156111745780820380516001836020036101000a031916815260200191505b5094505050505060405180910390f35b6111c66004803603602081101561119a57600080fd5b81019080803573ffffffffffffffffffffffffffffffffffffffff169060200190929190505050613aab565b60405180806020018060200185815260200184151515158152602001838103835287818151815260200191508051906020019080838360005b8381101561121a5780820151818401526020810190506111ff565b50505050905090810190601f1680156112475780820380516001836020036101000a031916815260200191505b50838103825286818151815260200191508051906020019080838360005b83811015611280578082015181840152602081019050611265565b50505050905090810190601f1680156112ad5780820380516001836020036101000a031916815260200191505b50965050505050505060405180910390f35b611301600480360360208110156112d557600080fd5b81019080803573ffffffffffffffffffffffffffffffffffffffff169060200190929190505050613c18565b6040518080602001806020018060200180602001858103855289818151815260200191508051906020019080838360005b8381101561134d578082015181840152602081019050611332565b50505050905090810190601f16801561137a5780820380516001836020036101000a031916815260200191505b50858103845288818151815260200191508051906020019080838360005b838110156113b3578082015181840152602081019050611398565b50505050905090810190601f1680156113e05780820380516001836020036101000a031916815260200191505b50858103835287818151815260200191508051906020019080838360005b838110156114195780820151818401526020810190506113fe565b50505050905090810190601f1680156114465780820380516001836020036101000a031916815260200191505b50858103825286818151815260200191508051906020019080838360005b8381101561147f578082015181840152602081019050611464565b50505050905090810190601f1680156114ac5780820380516001836020036101000a031916815260200191505b509850505050505050505060405180910390f35b6114c8613f54565b604051808060200180602001838103835285818151815260200191508051906020019080838360005b8381101561150c5780820151818401526020810190506114f1565b50505050905090810190601f1680156115395780820380516001836020036101000a031916815260200191505b50838103825284818151815260200191508051906020019080838360005b83811015611572578082015181840152602081019050611557565b50505050905090810190601f16801561159f5780820380516001836020036101000a031916815260200191505b5094505050505060405180910390f35b611650600480360360608110156115c557600080fd5b81019080803573ffffffffffffffffffffffffffffffffffffffff169060200190929190803590602001909291908035906020019064010000000081111561160c57600080fd5b82018360208201111561161e57600080fd5b8035906020019184600183028401116401000000008311171561164057600080fd5b909192939192939050505061409d565b604051808060200180602001838103835285818151815260200191508051906020019080838360005b83811015611694578082015181840152602081019050611679565b50505050905090810190601f1680156116c15780820380516001836020036101000a031916815260200191505b50838103825284818151815260200191508051906020019080838360005b838110156116fa5780820151818401526020810190506116df565b50505050905090810190601f1680156117275780820380516001836020036101000a031916815260200191505b5094505050505060405180910390f35b61173f61437c565b604051808060200180602001838103835285818151815260200191508051906020019080838360005b83811015611783578082015181840152602081019050611768565b50505050905090810190601f1680156117b05780820380516001836020036101000a031916815260200191505b50838103825284818151815260200191508051906020019080838360005b838110156117e95780820151818401526020810190506117ce565b50505050905090810190601f1680156118165780820380516001836020036101000a031916815260200191505b5094505050505060405180910390f35b6118686004803603602081101561183c57600080fd5b81019080803573ffffffffffffffffffffffffffffffffffffffff1690602001909291905050506144cb565b6040518084815260200183815260200182151515158152602001935050505060405180910390f35b6118d2600480360360208110156118a657600080fd5b81019080803573ffffffffffffffffffffffffffffffffffffffff169060200190929190505050614502565b6040518082815260200191505060405180910390f35b611934600480360360408110156118fe57600080fd5b81019080803573ffffffffffffffffffffffffffffffffffffffff169060200190929190803590602001909291905050506145a0565b604051808060200180602001838103835285818151815260200191508051906020019080838360005b8381101561197857808201518184015260208101905061195d565b50505050905090810190601f1680156119a55780820380516001836020036101000a031916815260200191505b50838103825284818151815260200191508051906020019080838360005b838110156119de5780820151818401526020810190506119c3565b50505050905090810190601f168015611a0b5780820380516001836020036101000a031916815260200191505b5094505050505060405180910390f35b611b9560048036036080811015611a3157600080fd5b810190808035906020019092919080359060200190640100000000811115611a5857600080fd5b820183602082011115611a6a57600080fd5b80359060200191846001830284011164010000000083111715611a8c57600080fd5b91908080601f016020809104026020016040519081016040528093929190818152602001838380828437600081840152601f19601f820116905080830192505050505050509192919290803573ffffffffffffffffffffffffffffffffffffffff16906020019092919080359060200190640100000000811115611b0f57600080fd5b820183602082011115611b2157600080fd5b80359060200191846001830284011164010000000083111715611b4357600080fd5b91908080601f016020809104026020016040519081016040528093929190818152602001838380828437600081840152601f19601f820116905080830192505050505050509192919290505050614869565b604051808060200180602001838103835285818151815260200191508051906020019080838360005b83811015611bd9578082015181840152602081019050611bbe565b50505050905090810190601f168015611c065780820380516001836020036101000a031916815260200191505b50838103825284818151815260200191508051906020019080838360005b83811015611c3f578082015181840152602081019050611c24565b50505050905090810190601f168015611c6c5780820380516001836020036101000a031916815260200191505b5094505050505060405180910390f35b611c84614c5e565b604051808273ffffffffffffffffffffffffffffffffffffffff1673ffffffffffffffffffffffffffffffffffffffff16815260200191505060405180910390f35b606080606060405180602001604052806000815250925060011515600360003373ffffffffffffffffffffffffffffffffffffffff1673ffffffffffffffffffffffffffffffffffffffff16815260200190815260200160002060050160009054906101000a900460ff161515141580611d94575060011515600460003373ffffffffffffffffffffffffffffffffffffffff1673ffffffffffffffffffffffffffffffffffffffff16815260200190815260200160002060030160009054906101000a900460ff16151514155b80611df3575060011515600160003373ffffffffffffffffffffffffffffffffffffffff1673ffffffffffffffffffffffffffffffffffffffff16815260200190815260200160002060030160009054906101000a900460ff16151514155b15611e76576040518060400160405280600481526020017f6661696c0000000000000000000000000000000000000000000000000000000081525091506040518060400160405280601781526020017f596f7520617265206e6f7420617574686f72697a6564210000000000000000008152509050828282925092509250612244565b6001151560008087815260200190815260200160002060040160009054906101000a900460ff16151514611f22576040518060400160405280600481526020017f6661696c0000000000000000000000000000000000000000000000000000000081525091506040518060400160405280601681526020017f57726f6e6720507265736372697074696f6e20494421000000000000000000008152509050828282925092509250612244565b600080905060008090505b60008088815260200190815260200160002060030180549050811015611fe1573373ffffffffffffffffffffffffffffffffffffffff166000808981526020019081526020016000206003018281548110611f8457fe5b9060005260206000200160009054906101000a900473ffffffffffffffffffffffffffffffffffffffff1673ffffffffffffffffffffffffffffffffffffffff161415611fd45760019150611fe1565b8080600101915050611f2d565b50600115158115151480156120b2575084876040516020018083805190602001908083835b602083106120295780518252602082019150602081019050602083039250612006565b6001836020036101000a0380198251168184511680821785525050505050509050018273ffffffffffffffffffffffffffffffffffffffff1673ffffffffffffffffffffffffffffffffffffffff1660601b8152601401925050506040516020818303038152906040528051906020012060008088815260200190815260200160002060020154145b156121e6576000808781526020019081526020016000206000018054600181600116156101000203166002900480601f0160208091040260200160405190810160405280929190818152602001828054600181600116156101000203166002900480156121605780601f1061213557610100808354040283529160200191612160565b820191906000526020600020905b81548152906001019060200180831161214357829003601f168201915b505050505093506040518060400160405280600781526020017f737563636573730000000000000000000000000000000000000000000000000081525092506040518060400160405280600781526020017f7375636365737300000000000000000000000000000000000000000000000000815250915083838393509350935050612244565b6040518060400160405280600481526020017f6661696c000000000000000000000000000000000000000000000000000000008152509250604051806060016040528060308152602001614e37603091399150838383935093509350505b93509350939050565b6003602052806000526040600020600091509050806000018054600181600116156101000203166002900480601f0160208091040260200160405190810160405280929190818152602001828054600181600116156101000203166002900480156122f95780601f106122ce576101008083540402835291602001916122f9565b820191906000526020600020905b8154815290600101906020018083116122dc57829003601f168201915b505050505090806001018054600181600116156101000203166002900480601f0160208091040260200160405190810160405280929190818152602001828054600181600116156101000203166002900480156123975780601f1061236c57610100808354040283529160200191612397565b820191906000526020600020905b81548152906001019060200180831161237a57829003601f168201915b505050505090806002018054600181600116156101000203166002900480601f0160208091040260200160405190810160405280929190818152602001828054600181600116156101000203166002900480156124355780601f1061240a57610100808354040283529160200191612435565b820191906000526020600020905b81548152906001019060200180831161241857829003601f168201915b505050505090806003018054600181600116156101000203166002900480601f0160208091040260200160405190810160405280929190818152602001828054600181600116156101000203166002900480156124d35780601f106124a8576101008083540402835291602001916124d3565b820191906000526020600020905b8154815290600101906020018083116124b657829003601f168201915b5050505050908060040154908060050160009054906101000a900460ff16905086565b6000602052806000526040600020600091509050806000018054600181600116156101000203166002900480601f0160208091040260200160405190810160405280929190818152602001828054600181600116156101000203166002900480156125a25780601f10612577576101008083540402835291602001916125a2565b820191906000526020600020905b81548152906001019060200180831161258557829003601f168201915b5050505050908060010154908060020154908060040160009054906101000a900460ff16905084565b60608060011515600360003373ffffffffffffffffffffffffffffffffffffffff1673ffffffffffffffffffffffffffffffffffffffff16815260200190815260200160002060050160009054906101000a900460ff161515146126a4576040518060400160405280600481526020017f6661696c0000000000000000000000000000000000000000000000000000000081525091506040518060400160405280601481526020017f596f7520617265206e6f74206120646f63746f720000000000000000000000008152509050818191509150612b96565b83856040516020018083805190602001908083835b602083106126dc57805182526020820191506020810190506020830392506126b9565b6001836020036101000a0380198251168184511680821785525050505050509050018273ffffffffffffffffffffffffffffffffffffffff1673ffffffffffffffffffffffffffffffffffffffff1660601b81526014019250505060405160208183030381529060405280519060200120600160008773ffffffffffffffffffffffffffffffffffffffff1673ffffffffffffffffffffffffffffffffffffffff1681526020019081526020016000206002015414612810576040518060400160405280600481526020017f6661696c0000000000000000000000000000000000000000000000000000000081525091506040518060400160405280600b81526020017f496e76616c6964204f54500000000000000000000000000000000000000000008152509050818191509150612b96565b600061281b86614502565b905060008633604051602001808373ffffffffffffffffffffffffffffffffffffffff1673ffffffffffffffffffffffffffffffffffffffff1660601b81526014018273ffffffffffffffffffffffffffffffffffffffff1673ffffffffffffffffffffffffffffffffffffffff1660601b8152601401925050506040516020818303038152906040528051906020012090508460008084815260200190815260200160002060000190805190602001906128d7929190614c84565b5080600080848152602001908152602001600020600101819055506000808381526020019081526020016000206003013390806001815401808255809150509060018203906000526020600020016000909192909190916101000a81548173ffffffffffffffffffffffffffffffffffffffff021916908373ffffffffffffffffffffffffffffffffffffffff160217905550506000808381526020019081526020016000206003018790806001815401808255809150509060018203906000526020600020016000909192909190916101000a81548173ffffffffffffffffffffffffffffffffffffffff021916908373ffffffffffffffffffffffffffffffffffffffff16021790555050600160008084815260200190815260200160002060040160006101000a81548160ff021916908315150217905550600160008873ffffffffffffffffffffffffffffffffffffffff1673ffffffffffffffffffffffffffffffffffffffff1681526020019081526020016000206001018290806001815401808255809150509060018203906000526020600020016000909192909190915055507f54eec163aef6ee87ac011c4f99da6cace41e1349f25a9ed65dc54087a835f208338884604051808473ffffffffffffffffffffffffffffffffffffffff1673ffffffffffffffffffffffffffffffffffffffff1681526020018373ffffffffffffffffffffffffffffffffffffffff1673ffffffffffffffffffffffffffffffffffffffff168152602001828152602001935050505060405180910390a16040518060400160405280600781526020017f737563636573730000000000000000000000000000000000000000000000000081525093506040518060400160405280602081526020017f507265736372697074696f6e205375636365737366756c6c7920616464656421815250925083839350935050505b935093915050565b606080600260009054906101000a900473ffffffffffffffffffffffffffffffffffffffff1673ffffffffffffffffffffffffffffffffffffffff163373ffffffffffffffffffffffffffffffffffffffff1614612c54576040518060400160405280600481526020017f6661696c000000000000000000000000000000000000000000000000000000008152509150604051806060016040528060218152602001614e16602191399050818191509150612fa5565b60011515600360008e73ffffffffffffffffffffffffffffffffffffffff1673ffffffffffffffffffffffffffffffffffffffff16815260200190815260200160002060050160009054906101000a900460ff1615151415612d2b576040518060400160405280600481526020017f6661696c0000000000000000000000000000000000000000000000000000000081525091506040518060400160405280601581526020017f446f63746f7220616c72656164792065786973747300000000000000000000008152509050818191509150612fa5565b6040518060c001604052808c8c8080601f016020809104026020016040519081016040528093929190818152602001838380828437600081840152601f19601f8201169050808301925050505050505081526020018a8a8080601f016020809104026020016040519081016040528093929190818152602001838380828437600081840152601f19601f82011690508083019250505050505050815260200188888080601f016020809104026020016040519081016040528093929190818152602001838380828437600081840152601f19601f82011690508083019250505050505050815260200186868080601f016020809104026020016040519081016040528093929190818152602001838380828437600081840152601f19601f82011690508083019250505050505050815260200184815260200160011515815250600360008e73ffffffffffffffffffffffffffffffffffffffff1673ffffffffffffffffffffffffffffffffffffffff1681526020019081526020016000206000820151816000019080519060200190612ec6929190614d04565b506020820151816001019080519060200190612ee3929190614d04565b506040820151816002019080519060200190612f00929190614d04565b506060820151816003019080519060200190612f1d929190614d04565b506080820151816004015560a08201518160050160006101000a81548160ff0219169083151502179055509050506040518060400160405280600781526020017f73756363657373000000000000000000000000000000000000000000000000008152509150604051806060016040528060238152602001614daa6023913990508181915091505b9a509a98505050505050505050565b60608060011515600160003373ffffffffffffffffffffffffffffffffffffffff1673ffffffffffffffffffffffffffffffffffffffff16815260200190815260200160002060030160009054906101000a900460ff1615151461308d576040518060400160405280600481526020017f6661696c0000000000000000000000000000000000000000000000000000000081525091506040518060400160405280601381526020017f70617469656e74206e6f7420206578697374730000000000000000000000000081525090508181915091506131b1565b83833360405160200180848480828437808301925050508273ffffffffffffffffffffffffffffffffffffffff1673ffffffffffffffffffffffffffffffffffffffff1660601b8152601401935050505060405160208183030381529060405280519060200120600160003373ffffffffffffffffffffffffffffffffffffffff1673ffffffffffffffffffffffffffffffffffffffff168152602001908152602001600020600201819055506040518060400160405280600781526020017f737563636573730000000000000000000000000000000000000000000000000081525091506040518060400160405280602081526020017f4f545020686173206265656e207265736574207375636365737366756c6c792181525090508181915091505b9250929050565b60608060011515600460003373ffffffffffffffffffffffffffffffffffffffff1673ffffffffffffffffffffffffffffffffffffffff16815260200190815260200160002060030160009054906101000a900460ff1615151415613292576040518060400160405280600781526020017f737563636573730000000000000000000000000000000000000000000000000081525091506040518060400160405280601181526020017f4974206973206120506861726d616379210000000000000000000000000000008152509050818191509150613303565b6040518060400160405280600481526020017f6661696c0000000000000000000000000000000000000000000000000000000081525091506040518060400160405280601581526020017f4974206973206e6f74206120506861726d61637921000000000000000000000081525090505b9091565b60608060011515600160003373ffffffffffffffffffffffffffffffffffffffff1673ffffffffffffffffffffffffffffffffffffffff16815260200190815260200160002060030160009054906101000a900460ff16151514156133e1576040518060400160405280600781526020017f737563636573730000000000000000000000000000000000000000000000000081525091506040518060400160405280601281526020017f596f752061726520612070617469656e742100000000000000000000000000008152509050818191509150613452565b6040518060400160405280600481526020017f6661696c0000000000000000000000000000000000000000000000000000000081525091506040518060400160405280601681526020017f596f7520617265206e6f7420612070617469656e74210000000000000000000081525090505b9091565b606080600260009054906101000a900473ffffffffffffffffffffffffffffffffffffffff1673ffffffffffffffffffffffffffffffffffffffff163373ffffffffffffffffffffffffffffffffffffffff1614613529576040518060400160405280600481526020017f6661696c0000000000000000000000000000000000000000000000000000000081525091506040518060400160405280601281526020017f4f6e6c792061646d696e2063616e20616464000000000000000000000000000081525090508181915091506137c9565b60011515600460008a73ffffffffffffffffffffffffffffffffffffffff1673ffffffffffffffffffffffffffffffffffffffff16815260200190815260200160002060030160009054906101000a900460ff1615151415613600576040518060400160405280600481526020017f6661696c0000000000000000000000000000000000000000000000000000000081525091506040518060400160405280601881526020017f506861726d61637920616c72656164792065786973747321000000000000000081525090508181915091506137c9565b604051806080016040528088888080601f016020809104026020016040519081016040528093929190818152602001838380828437600081840152601f19601f82011690508083019250505050505050815260200186868080601f016020809104026020016040519081016040528093929190818152602001838380828437600081840152601f19601f82011690508083019250505050505050815260200184815260200160011515815250600460008a73ffffffffffffffffffffffffffffffffffffffff1673ffffffffffffffffffffffffffffffffffffffff1681526020019081526020016000206000820151816000019080519060200190613707929190614d04565b506020820151816001019080519060200190613724929190614d04565b506040820151816002015560608201518160030160006101000a81548160ff0219169083151502179055509050506040518060400160405280600781526020017f737563636573730000000000000000000000000000000000000000000000000081525091506040518060400160405280601c81526020017f506861726d616379205375636365737366756c6c79206164646564210000000081525090508181915091505b965096945050505050565b60608060011515600160003373ffffffffffffffffffffffffffffffffffffffff1673ffffffffffffffffffffffffffffffffffffffff16815260200190815260200160002060030160009054906101000a900460ff161515146138ad576040518060400160405280600481526020017f6661696c0000000000000000000000000000000000000000000000000000000081525091506040518060400160405280601381526020017f70617469656e74206e6f742020657869737473000000000000000000000000008152509050818191509150613aa3565b3385604051602001808373ffffffffffffffffffffffffffffffffffffffff1673ffffffffffffffffffffffffffffffffffffffff1660601b81526014018273ffffffffffffffffffffffffffffffffffffffff1673ffffffffffffffffffffffffffffffffffffffff1660601b8152601401925050506040516020818303038152906040528051906020012060008086815260200190815260200160002060010154146139d0576040518060400160405280600481526020017f6661696c0000000000000000000000000000000000000000000000000000000081525091506040518060400160405280601781526020017f4b657920766572696669636174696f6e206661696c65640000000000000000008152509050818191509150613aa3565b6000808581526020019081526020016000206003018390806001815401808255809150509060018203906000526020600020016000909192909190916101000a81548173ffffffffffffffffffffffffffffffffffffffff021916908373ffffffffffffffffffffffffffffffffffffffff160217905550506040518060400160405280600781526020017f73756363657373000000000000000000000000000000000000000000000000008152509150604051806060016040528060258152602001614df16025913990508181915091505b935093915050565b6004602052806000526040600020600091509050806000018054600181600116156101000203166002900480601f016020809104026020016040519081016040528092919081815260200182805460018160011615610100020316600290048015613b575780601f10613b2c57610100808354040283529160200191613b57565b820191906000526020600020905b815481529060010190602001808311613b3a57829003601f168201915b505050505090806001018054600181600116156101000203166002900480601f016020809104026020016040519081016040528092919081815260200182805460018160011615610100020316600290048015613bf55780601f10613bca57610100808354040283529160200191613bf5565b820191906000526020600020905b815481529060010190602001808311613bd857829003601f168201915b5050505050908060020154908060030160009054906101000a900460ff16905084565b606080606080600260009054906101000a900473ffffffffffffffffffffffffffffffffffffffff1673ffffffffffffffffffffffffffffffffffffffff163373ffffffffffffffffffffffffffffffffffffffff1614613d16576040518060400160405280600481526020017f6661696c0000000000000000000000000000000000000000000000000000000081525091506040518060400160405280601281526020017f4f6e6c792061646d696e2063616e206164640000000000000000000000000000815250905081816040518060200160405280600081525091906040518060200160405280600081525091909350935093509350613f4d565b600360008673ffffffffffffffffffffffffffffffffffffffff1673ffffffffffffffffffffffffffffffffffffffff1681526020019081526020016000206000018054600181600116156101000203166002900480601f016020809104026020016040519081016040528092919081815260200182805460018160011615610100020316600290048015613dec5780601f10613dc157610100808354040283529160200191613dec565b820191906000526020600020905b815481529060010190602001808311613dcf57829003601f168201915b50505050509350600360008673ffffffffffffffffffffffffffffffffffffffff1673ffffffffffffffffffffffffffffffffffffffff1681526020019081526020016000206002018054600181600116156101000203166002900480601f016020809104026020016040519081016040528092919081815260200182805460018160011615610100020316600290048015613ec95780601f10613e9e57610100808354040283529160200191613ec9565b820191906000526020600020905b815481529060010190602001808311613eac57829003601f168201915b505050505092506040518060400160405280600781526020017f737563636573730000000000000000000000000000000000000000000000000081525091506040518060400160405280600781526020017f737563636573730000000000000000000000000000000000000000000000000081525090508383838393509350935093505b9193509193565b606080600260009054906101000a900473ffffffffffffffffffffffffffffffffffffffff1673ffffffffffffffffffffffffffffffffffffffff163373ffffffffffffffffffffffffffffffffffffffff161415614028576040518060400160405280600781526020017f737563636573730000000000000000000000000000000000000000000000000081525091506040518060400160405280600e81526020017f57656c636f6d652041646d696e210000000000000000000000000000000000008152509050818191509150614099565b6040518060400160405280600481526020017f6661696c0000000000000000000000000000000000000000000000000000000081525091506040518060400160405280601281526020017f596f7520617265206e6f742061646d696e21000000000000000000000000000081525090505b9091565b60608060011515600160003373ffffffffffffffffffffffffffffffffffffffff1673ffffffffffffffffffffffffffffffffffffffff16815260200190815260200160002060030160009054906101000a900460ff16151514614176576040518060400160405280600481526020017f6661696c0000000000000000000000000000000000000000000000000000000081525091506040518060400160405280601381526020017f70617469656e74206e6f742020657869737473000000000000000000000000008152509050818191509150614373565b3386604051602001808373ffffffffffffffffffffffffffffffffffffffff1673ffffffffffffffffffffffffffffffffffffffff1660601b81526014018273ffffffffffffffffffffffffffffffffffffffff1673ffffffffffffffffffffffffffffffffffffffff1660601b815260140192505050604051602081830303815290604052805190602001206000808781526020019081526020016000206001015414614299576040518060400160405280600481526020017f6661696c0000000000000000000000000000000000000000000000000000000081525091506040518060400160405280601781526020017f4b657920766572696669636174696f6e206661696c65640000000000000000008152509050818191509150614373565b83833360405160200180848480828437808301925050508273ffffffffffffffffffffffffffffffffffffffff1673ffffffffffffffffffffffffffffffffffffffff1660601b8152601401935050505060405160208183030381529060405280519060200120600080878152602001908152602001600020600201819055506040518060400160405280600781526020017f73756363657373000000000000000000000000000000000000000000000000008152509150604051806060016040528060248152602001614dcd6024913990508181915091505b94509492505050565b60608060011515600360003373ffffffffffffffffffffffffffffffffffffffff1673ffffffffffffffffffffffffffffffffffffffff16815260200190815260200160002060050160009054906101000a900460ff1615151415614456576040518060400160405280600781526020017f737563636573730000000000000000000000000000000000000000000000000081525091506040518060400160405280601181526020017f596f7520617265206120646f63746f722100000000000000000000000000000081525090508181915091506144c7565b6040518060400160405280600481526020017f6661696c0000000000000000000000000000000000000000000000000000000081525091506040518060400160405280601581526020017f596f7520617265206e6f74206120646f63746f7221000000000000000000000081525090505b9091565b60016020528060005260406000206000915090508060000154908060020154908060030160009054906101000a900460ff16905083565b60008060018060008573ffffffffffffffffffffffffffffffffffffffff1673ffffffffffffffffffffffffffffffffffffffff16815260200190815260200160002060010180549050016103e8600160008673ffffffffffffffffffffffffffffffffffffffff1673ffffffffffffffffffffffffffffffffffffffff168152602001908152602001600020600001540201905080915050919050565b606080600260009054906101000a900473ffffffffffffffffffffffffffffffffffffffff1673ffffffffffffffffffffffffffffffffffffffff163373ffffffffffffffffffffffffffffffffffffffff1614614673576040518060400160405280600481526020017f6661696c0000000000000000000000000000000000000000000000000000000081525091506040518060400160405280601281526020017f4f6e6c792061646d696e2063616e2061646400000000000000000000000000008152509050818191509150614862565b60011515600160008673ffffffffffffffffffffffffffffffffffffffff1673ffffffffffffffffffffffffffffffffffffffff16815260200190815260200160002060030160009054906101000a900460ff161515141561474a576040518060400160405280600481526020017f6661696c0000000000000000000000000000000000000000000000000000000081525091506040518060400160405280601781526020017f50617469656e7420616c726561647920657869737473210000000000000000008152509050818191509150614862565b82600160008673ffffffffffffffffffffffffffffffffffffffff1673ffffffffffffffffffffffffffffffffffffffff1681526020019081526020016000206000018190555060018060008673ffffffffffffffffffffffffffffffffffffffff1673ffffffffffffffffffffffffffffffffffffffff16815260200190815260200160002060030160006101000a81548160ff0219169083151502179055506040518060400160405280600781526020017f737563636573730000000000000000000000000000000000000000000000000081525091506040518060400160405280601b81526020017f50617469656e74205375636365737366756c6c7920616464656421000000000081525090508181915091505b9250929050565b60608060011515600360003373ffffffffffffffffffffffffffffffffffffffff1673ffffffffffffffffffffffffffffffffffffffff16815260200190815260200160002060050160009054906101000a900460ff16151514614942576040518060400160405280600481526020017f6661696c0000000000000000000000000000000000000000000000000000000081525091506040518060400160405280602081526020017f596f752061726520617574686f72697a656420746f207669657720746869732e8152509050818191509150614c55565b8333604051602001808373ffffffffffffffffffffffffffffffffffffffff1673ffffffffffffffffffffffffffffffffffffffff1660601b81526014018273ffffffffffffffffffffffffffffffffffffffff1673ffffffffffffffffffffffffffffffffffffffff1660601b815260140192505050604051602081830303815290604052805190602001206000808881526020019081526020016000206001015414614a65576040518060400160405280600481526020017f6661696c0000000000000000000000000000000000000000000000000000000081525091506040518060400160405280601781526020017f4b657920766572696669636174696f6e206661696c65640000000000000000008152509050818191509150614c55565b84846040516020018083805190602001908083835b60208310614a9d5780518252602082019150602081019050602083039250614a7a565b6001836020036101000a0380198251168184511680821785525050505050509050018273ffffffffffffffffffffffffffffffffffffffff1673ffffffffffffffffffffffffffffffffffffffff1660601b81526014019250505060405160208183030381529060405280519060200120600160008673ffffffffffffffffffffffffffffffffffffffff1673ffffffffffffffffffffffffffffffffffffffff1681526020019081526020016000206002015414614bd1576040518060400160405280600481526020017f6661696c0000000000000000000000000000000000000000000000000000000081525091506040518060400160405280600b81526020017f496e76616c6964204f54500000000000000000000000000000000000000000008152509050818191509150614c55565b826000808881526020019081526020016000206000019080519060200190614bfa929190614c84565b506040518060400160405280600781526020017f737563636573730000000000000000000000000000000000000000000000000081525091506040518060600160405280602a8152602001614e67602a913990508181915091505b94509492505050565b600260009054906101000a900473ffffffffffffffffffffffffffffffffffffffff1681565b828054600181600116156101000203166002900490600052602060002090601f016020900481019282601f10614cc557805160ff1916838001178555614cf3565b82800160010185558215614cf3579182015b82811115614cf2578251825591602001919060010190614cd7565b5b509050614d009190614d84565b5090565b828054600181600116156101000203166002900490600052602060002090601f016020900481019282601f10614d4557805160ff1916838001178555614d73565b82800160010185558215614d73579182015b82811115614d72578251825591602001919060010190614d57565b5b509050614d809190614d84565b5090565b614da691905b80821115614da2576000816000905550600101614d8a565b5090565b9056fe446f63746f7220686173206265656e206164646564207375636365737366756c6c7921507265736372697074696f6e204f5450207265736574207375636365737366756c6c7921417574686f72697a656420706572736f6e206164646564207375636365737366756c6c79214f6e6c792061646d696e2063616e207265676973746572206120646f63746f7221596f7520617265206e6f7420617574686f72697a656420746f20766965772074686520707265736372697074696f6e21507265736372697074696f6e20686173206265656e20656469746564207375636365737366756c6c7921a265627a7a723158206936d9f0e9504f653a11d391296fc17a744d09969e77e5891c08f1b9f5ce3d5264736f6c63430005100032",
  "source": "// SPDX-License-Identifier: GPL-3.0\npragma solidity >= 0.4.22 < 0.9 .0;\n\n//0xAb8483F64d9C6d1EcF9b849Ae677dD3315835cb2\n//0x4B20993Bc481177ec7E8f571ceCaE8A9e22C02db\n//0x78731D3Ca6b7E34aC0F824c42a7cC18A495cabaB\n\ncontract Healthcare {\n\n\n    //struct Prescription\n\n    struct Prescription {\n        string prescription;\n        bytes32 key;\n        bytes32 otp;\n        address[] authorizedPersons;\n        bool exist;\n\n    }\n\n\n    mapping(uint256 => Prescription) public PrescriptionList;\n\n    // struct Patient\n\n    struct Patient {\n        uint256 aadhaar;\n        uint256[] prescriptions;\n        bytes32 otp;\n        bool exist;\n    }\n\n\n    mapping(address => Patient) public PatientList;\n\n\n    address public admin;\n\n    // constructor\n\n    constructor() public{\n        admin = msg.sender; // make admin who deployed the contract\n    }\n    \n    function isAdmin() external view returns(string memory _status, string memory _msg) {\n        if(msg.sender == admin){\n            _status = \"success\";\n            _msg = \"Welcome Admin!\";\n            return (_status, _msg);\n        }else{\n            \n            _status = \"fail\";\n            _msg = \"You are not admin!\";\n        }\n    }\n    function isDoctor() external view returns(string memory _status, string memory _msg) {\n        if(DoctorList[msg.sender].exist == true){\n            _status = \"success\";\n            _msg = \"You are a doctor!\";\n            return (_status, _msg);\n        }else{\n            \n            _status = \"fail\";\n            _msg = \"You are not a doctor!\";\n        }\n    }\n    \n    function isPatient() external view returns(string memory _status, string memory _msg) {\n        if (PatientList[msg.sender].exist == true){\n            _status = \"success\";\n            _msg = \"You are a patient!\";\n            return (_status, _msg);\n        }else{\n            \n            _status = \"fail\";\n            _msg = \"You are not a patient!\";\n        }\n    }\n    function isPharmacy() external view returns(string memory _status, string memory _msg) {\n        if (PharmacyList[msg.sender].exist == true){\n            _status = \"success\";\n            _msg = \"It is a Pharmacy!\";\n            return (_status, _msg);\n        }else{\n            \n            _status = \"fail\";\n            _msg = \"It is not a Pharmacy!\";\n        }\n    }\n    /*\n     **\n     **  function addPatient(address patientAddr, uint256 _aadhaar, string calldata _name,  string calldata _dob,  string calldata _gender, \n     *                       string calldata _bloodGroup, uint256 _emergencyContact)\n     **\n     **  Parameters          :   patientAddr         - Patient Address\n     **                          _aadhaar            - Aadhaar number of the Patient\n     **                          \n     **  \n     **  Description: Only admin can register a patient if patient is not already exist \n     **\n     **\n     */\n\n    function addPatient(address patientAddr, uint256 _aadhaar) external returns(string memory _status, string memory _msg) {\n\n        if (msg.sender != admin) {\n\n            _status = \"fail\";\n            _msg = \"Only admin can add\";\n            return (_status, _msg);\n\n        } else if (PatientList[patientAddr].exist == true) {\n\n            _status = \"fail\";\n            _msg = \"Patient already exists!\";\n            return (_status, _msg);\n\n        }\n        PatientList[patientAddr].aadhaar = _aadhaar;\n        PatientList[patientAddr].exist = true;\n\n        _status = \"success\";\n        _msg = \"Patient Successfully added!\";\n        return (_status, _msg);\n\n    }\n\n    /*function modifyPatient( string calldata _name,  string calldata _dob,  string calldata _gender, \n    string calldata _bloodGroup, uint256 _emergencyContact) external{\n        require(PatientList[msg.sender].exist==true, 'patient not  exists');\n        PatientList[msg.sender].name = _name;\n        PatientList[msg.sender].dob = _dob;\n        PatientList[msg.sender].gender = _gender;\n        PatientList[msg.sender].bloodGroup = _bloodGroup;\n        PatientList[msg.sender].emergencyContact = _emergencyContact;\n    }\n    */\n    function resetOTP(string calldata _otp) external returns(string memory _status, string memory _msg) {\n\n        if (PatientList[msg.sender].exist != true) {\n            _status = \"fail\";\n            _msg = \"patient not  exists\";\n            return (_status, _msg);\n        }\n        PatientList[msg.sender].otp = keccak256(abi.encodePacked(_otp, msg.sender));\n        _status = \"success\";\n        _msg = \"OTP has been reset successfully!\";\n        return (_status, _msg);\n    }\n\n    /*function getPatDetails(address patientAddr) public view returns(uint256 _aadhaar, string memory _name, string memory _dob,\n    string memory _gender, string memory _bloodGroup, uint256 _emergencyContact){\n         require(msg.sender==admin || msg.sender==patientAddr, 'You are not authorized!');\n        _aadhaar = PatientList[patientAddr].aadhaar;\n        _name = PatientList[patientAddr].name; \n        _dob = PatientList[patientAddr].dob; \n        _gender = PatientList[patientAddr].gender; \n        _bloodGroup = PatientList[patientAddr].bloodGroup; \n        _emergencyContact = PatientList[patientAddr].emergencyContact; \n        \n   }*/\n\n    struct Doctor {\n        string RegNo;\n        string medCouncilName;\n        string name;\n        string areaExpertize;\n        uint256 contactNo;\n        bool exist;\n    }\n\n    mapping(address => Doctor) public DoctorList;\n\n    /*\n     **\n     **  function addDoctor(address docAddr, string calldata _RegNo, string calldata _medCouncilName,  string calldata _name,  string calldata _areaExpertize, uint256 _contactNo)\n     **\n     **  Parameters          :   _docAddr            - Doctor Address\n     **                          _RegNo              - Registration number of the Doctor\n     **                          _medCouncilName     - Medical Council Name of the Doctor\n     **                          _name               - Name of the Doctor\n     **                          _areaExpertize      - Area of Expertize of the Doctor\n     **  \n     **  Description: Only admin can register a Doctor if Doctor is not already exist \n     **\n     **\n     */\n\n    function addDoctor(address _docAddr, string calldata _RegNo, string calldata _medCouncilName, string calldata _name, string calldata _areaExpertize, uint256 _contactNo) external returns(string memory _status, string memory _msg){\n       \n        if (msg.sender != admin) {\n            _status = \"fail\";\n            _msg = \"Only admin can register a doctor!\";\n            return (_status, _msg);\n        }else if (DoctorList[_docAddr].exist == true) {\n            _status = \"fail\";\n            _msg = \"Doctor already exists\";\n            return (_status, _msg);\n        }\n        DoctorList[_docAddr] = Doctor(_RegNo, _medCouncilName, _name, _areaExpertize, _contactNo, true);\n        _status = \"success\";\n        _msg = \"Doctor has been added successfully!\";\n        return (_status, _msg);\n        \n        \n    }\n\n    function getDocDetails(address docAddr) public view returns(string memory _RegNo, string memory _name, string memory _status, string memory _msg) {\n\n        if (msg.sender != admin) {\n            _status = \"fail\";\n            _msg = \"Only admin can add\";\n            return (\"\", \"\", _status, _msg);\n        }\n        _RegNo = DoctorList[docAddr].RegNo;\n        _name = DoctorList[docAddr].name;\n        _status = \"success\";\n        _msg = \"success\";\n        return (_RegNo, _name, _status, _msg);\n    }\n\n\n\n    // struct Pharmacy\n\n    struct Pharmacy {\n        string RegNo;\n        string name;\n        uint256 contactNo;\n        bool exist;\n    }\n    mapping(address => Pharmacy) public PharmacyList;\n\n    /*\n     **\n     **  function addPharmacy(address _pharmAddr, string calldata _RegNo,  string calldata _name, uint256 _contactNo)\n     **\n     **  Parameters          :   _pharmAddr          - Pharmacy Address\n     **                          _RegNo              - Registration number of the Pharmacy\n     **                          _name               - Name of the Pharmacy\n     **                          _contactNo          - Contact number of the Pharmacy\n     **  \n     **  Description: Only admin can register a Pharmacy if Pharmacy is not already exist \n     **\n     **\n     */\n\n    function addPharmacy(address _pharmAddr, string calldata _RegNo, string calldata _name, uint256 _contactNo) external returns(string memory _status, string memory _msg) {\n\n        if (msg.sender != admin) {\n\n            _status = \"fail\";\n            _msg = \"Only admin can add\";\n            return (_status, _msg);\n\n        } else if (PharmacyList[_pharmAddr].exist == true) {\n\n            _status = \"fail\";\n            _msg = \"Pharmacy already exists!\";\n            return (_status, _msg);\n        }\n\n        PharmacyList[_pharmAddr] = Pharmacy(_RegNo, _name, _contactNo, true);\n        _status = \"success\";\n        _msg = \"Pharmacy Successfully added!\";\n        return (_status, _msg);\n    }\n\n    event PrescriptionEvent(\n        address _docAddr,\n        address _patAddr,\n        uint256 _value\n    );\n\n\n    function createPrescriptionID(address _patientAddr) public view returns(uint256) {\n        uint prescriptionID = (PatientList[_patientAddr].aadhaar) * 1000 + (PatientList[_patientAddr].prescriptions.length + 1);\n        return prescriptionID;\n    }\n\n\n\n    /*\n     **\n     **  function addPrescription(address _patientAddr, string memory _patOtp,string memory _prescription) \n     **\n     **  Parameters           :   _patientAddr       - Patient Address\n     **                           _patOtp            - OTP of the Patient \n     **                           _prescription      - Prescription\n     **\n     **  Description         :   If the user already registered as Doctor, and he/she has Patient Address, and Patient OTP\n     **                          then he/she can add the Prescription\n     ** \n     **\n     */\n\n    function addPrescription(address _patientAddr, string memory _patOtp, string memory _prescription) public returns(string memory _status, string memory _msg){\n        \n        \n        if (DoctorList[msg.sender].exist != true) {\n\n            _status = \"fail\";\n            _msg = \"You are not a doctor\";\n            return (_status, _msg);\n\n        }else  if (PatientList[_patientAddr].otp != keccak256(abi.encodePacked(_patOtp, _patientAddr))) {\n\n            _status = \"fail\";\n            _msg = \"Invalid OTP\";\n            return (_status, _msg);\n\n        }  \n\n        uint256 prescriptionID = createPrescriptionID(_patientAddr);\n        bytes32 key = keccak256(abi.encodePacked(_patientAddr, msg.sender));\n\n        PrescriptionList[prescriptionID].prescription = _prescription;\n        PrescriptionList[prescriptionID].key = key;\n        PrescriptionList[prescriptionID].authorizedPersons.push(msg.sender);\n        PrescriptionList[prescriptionID].authorizedPersons.push(_patientAddr);\n        PrescriptionList[prescriptionID].exist = true;\n\n        PatientList[_patientAddr].prescriptions.push(prescriptionID);\n        emit PrescriptionEvent(msg.sender, _patientAddr, prescriptionID);\n        \n        _status = \"success\";\n        _msg = \"Prescription Successfully added!\";\n        return (_status, _msg);\n    }\n\n\n\n\n    /*\n     **\n     **  function editPrescription(uint256 _prescriptionID, string memory _prescriptionOtp,address _patientAddr, string memory _prescription)\n     **\n     **  Parameters           :   _prescriptionID    - Prescription Id\n     **                           _prescriptionOtp   - OTP of the Prescription \n     **                           _patientAddr       - Patient Address\n     **                           _prescription      - New Prescription\n     **\n     **  Description         :   If the user already registered as Doctor, and he/she has Patient Address, and Prescription OTP\n     **                          key which is generated from patient address and msg.sender, is matched with the Prescription key \n     **                          then he/she can edit the Prescription\n     ** \n     **\n     */\n\n    function editPrescription(uint256 _prescriptionID, string memory _prescriptionOtp, address _patientAddr, string memory _prescription) public returns(string memory _status, string memory _msg){\n      \n        if (DoctorList[msg.sender].exist != true) {\n\n            _status = \"fail\";\n            _msg = \"You are authorized to view this.\";\n            return (_status, _msg);\n\n        }else  if (PrescriptionList[_prescriptionID].key != keccak256(abi.encodePacked(_patientAddr, msg.sender))) {\n\n            _status = \"fail\";\n            _msg = \"Key verification failed\";\n            return (_status, _msg);\n\n        }else  if (PatientList[_patientAddr].otp != keccak256(abi.encodePacked(_prescriptionOtp, _patientAddr))) {\n\n            _status = \"fail\";\n            _msg = \"Invalid OTP\";\n            return (_status, _msg);\n\n        }    \n\n        PrescriptionList[_prescriptionID].prescription = _prescription;\n        _status = \"success\";\n        _msg = \"Prescription has been edited successfully!\";\n       return (_status, _msg);\n    }\n\n\n\n\n    /*\n     **\n     **  function resetPrescriptionOTP( address _docAddr, uint256 _prescriptionID, string calldata _otp) \n     **\n     **  Parameters           :   _docAddr           - Doctor Address\n     **                           _prescriptionID    - Prescription Id\n     **                           _otp               - OTP of the Prescription which is going to set\n     **\n     **  Description         :   If the user already registered as Patient, and he/she has Doctor Address, and\n     **                          key which is generated from msg.sender and doctor address is matched with the Prescription key \n     **                          then he/she can set the OTP of the Prescription\n     ** \n     **\n     */\n\n    function resetPrescriptionOTP(address _docAddr, uint256 _prescriptionID, string calldata _otp) external returns(string memory _status, string memory _msg){\n\n        if (PatientList[msg.sender].exist != true) {\n\n            _status = \"fail\";\n            _msg = \"patient not  exists\";\n            return (_status, _msg);\n\n        }else  if (PrescriptionList[_prescriptionID].key !=  keccak256(abi.encodePacked(msg.sender, _docAddr))) {\n\n            _status = \"fail\";\n            _msg = \"Key verification failed\";\n            return (_status, _msg);\n\n        }\n\n        PrescriptionList[_prescriptionID].otp = keccak256(abi.encodePacked(_otp, msg.sender));\n        \n        _status = \"success\";\n        _msg = \"Prescription OTP reset successfully!\";\n        return (_status, _msg);\n\n    }\n\n\n\n\n    /*\n     **\n     **  function addAuthPerson( address _docAddr, uint256 _prescriptionID, address _authrizedPerson)\n     **\n     **  Parameters           :   _docAddr           - Doctor Address\n     **                           _prescriptionID    - Prescription Id\n     **                           _authrizedPerson   - address of the user, who will be authorized to view the Prescription\n     **\n     **  Description         :   If the user already register as Patient or Doctor or Pharmacy, and he/she has otp, and authorized person \n     **                          then he/she can view the Prescription\n     ** \n     **\n     */\n\n    function addAuthPerson(address _docAddr, uint256 _prescriptionID, address _authrizedPerson) external returns(string memory _status, string memory _msg){\n       \n        if (PatientList[msg.sender].exist != true) {\n\n            _status = \"fail\";\n            _msg = \"patient not  exists\";\n            return (_status, _msg);\n\n        }else  if (PrescriptionList[_prescriptionID].key !=  keccak256(abi.encodePacked(msg.sender, _docAddr))) {\n\n            _status = \"fail\";\n            _msg = \"Key verification failed\";\n            return (_status, _msg);\n\n        }\n        PrescriptionList[_prescriptionID].authorizedPersons.push(_authrizedPerson);\n        \n        _status = \"success\";\n        _msg = \"Authorized person added successfully!\";\n        return (_status, _msg);\n\n    }\n\n\n\n\n    /*\n     **\n     **  function getPrescription(address _patientAddr, uint256 _prescriptionID, string  memory _otp)\n     **\n     **  Parameters           :   _patientAddr       - Patient Address\n     **                           _prescriptionID    - Prescription Id\n     **                           _otp               - OTP for accessing Prescription\n     **\n     **  Return             :    _prescription       - Prescription\n     **  \n     **\n     **  Description         :   If the user already register as Patient or Doctor or Pharmacy, and he/she has otp, and authorized person \n     *                           then he/she can view the Prescription\n     ** \n     **\n     */\n\n    function getPrescription(address _patientAddr, uint256 _prescriptionID, string memory _otp) public view returns(string memory _prescription, string memory _status, string memory _msg) {\n        \n        _prescription = \"\";\n        if (DoctorList[msg.sender].exist != true || PharmacyList[msg.sender].exist != true || PatientList[msg.sender].exist != true) {\n\n            _status = \"fail\";\n            _msg = \"You are not authorized!\";\n            return (_prescription, _status, _msg);\n\n        }else  if (PrescriptionList[_prescriptionID].exist != true) {\n\n            _status = \"fail\";\n            _msg = \"Wrong Prescription ID!\";\n            return (_prescription, _status, _msg);\n\n        }\n        \n        bool authorized = false;\n\n        //check user is authorized person or not\n\n        for (uint i = 0; i < PrescriptionList[_prescriptionID].authorizedPersons.length; i++) {\n            if (PrescriptionList[_prescriptionID].authorizedPersons[i] == msg.sender) {\n                authorized = true; // if user address exists in authorizedPersons array of PrescriptionList, then change the authorized value to true\n                break;\n            }\n        }\n\n        if (authorized == true && PrescriptionList[_prescriptionID].otp == keccak256(abi.encodePacked(_otp, _patientAddr))) {\n\n            _prescription = PrescriptionList[_prescriptionID].prescription;\n            _status = \"success\";\n            _msg = \"success\";\n            return (_prescription, _status, _msg);\n\n        }else{\n            \n            _status = \"fail\";\n            _msg = \"You are not authorized to view the prescription!\";\n            return (_prescription, _status, _msg);\n        }\n       \n\n    }\n\n}",
  "sourcePath": "/home/moumita/healthcare_2/contracts/Healthcare.sol",
  "compiler": {
    "name": "solc",
    "version": "0.5.16+commit.9c3226ce.Emscripten.clang"
  },
  "schemaVersion": "3.4.1",
  "updatedAt": "2021-07-06T13:10:19.251Z",
  "networkType": "ethereum",
  "devdoc": {
    "methods": {}
  },
  "userdoc": {
    "methods": {}
  }
}